:020000040800F2
:10000000F8FF0120E96A0A08856B0A08D14B050848
:10001000856B0A08856B0A08856B0A0800000000DA
:10002000000000000000000000000000856B0A08CE
:10003000856B0A0800000000856B0A08F965040852
:10004000856B0A08856B0A08856B0A08856B0A08A8
:10005000856B0A08856B0A08351B04085D1B0408BC
:10006000851B0408AD1B0408D51B0408BD03000054
:10007000D1030000E5030000F90300000D040000B7
:100080002104000035040000856B0A08856B0A080E
:10009000856B0A08856B0A08856B0A08FD1B040836
:1000A000856B0A081D460408856B0A080D4604087E
:1000B0002D4604083D4604084D460408B9100408BE
:1000C000AD100408ED100408E1100408856B0A085F
:1000D000856B0A08B53C0000053E0000713F00003A
:1000E0003D1C0408856B0A0800000000094704084D
:1000F000E146040819470408D146040849040000F1
:10010000856B0A08C12B04085D460408856B0A0844
:10011000E1400000514200006D460408F5990908CD
:100120005D040000710400008504000099040000D3
:10013000AD040000856B0A08856B0A08856B0A0808
:1001400000000000000000000000000000000000AF
:10015000C1040000D5040000E9040000C143000010
:100160002111040815110408856B0A08856B0A081B
:10017000856B0A08856B0A08856B0A080000000079
:10018000856B0A08856B0A0831450000A14600000E
:10019000856B0A08856B0A08856B0A08856B0A0857
:1001A000856B0A08856B0A08856B0A08856B0A0847
:1001B000856B0A08856B0A08856B0A0855110408C7
:1001C00049110408856B0A08856B0A08856B0A08C3
:1001D000856B0A0835900908856B0A08856B0A0843
:1001E000856B0A08856B0A08856B0A08856B0A0807
:1001F000856B0A08856B0A08856B0A08856B0A08F7
:10020000856B0A08856B0A08856B0A08856B0A08E6
:10021000294704083947040849470408856B0A0838
:10022000856B0A08856B0A08856B0A0800000000C8
:10023000C52B0408856B0A0800000000856B0A08BE
:10024000856B0A08856B0A08856B0A08856B0A08A6
:10025000856B0A08856B0A08856B0A08856B0A0896
:10026000856B0A08856B0A08856B0A08856B0A0886
:10027000856B0A08856B0A08114800000000000021
:10028000856B0A0800000000856B0A08000000006A
:0802900000000000856B0A0864
:020000040804EE
:10000000114A037A0168D35C10B4CC58CA1824F0A2
:100010000104CC501368DB07FCD4037D1F2B09D9E6
:10002000203B20225DF8044B02FA03F343F018034F
:10003000CB60704720225DF8044B02FA03F343F0D3
:1000400018038B60704700BFB81F0B084368426DF0
:1000500030B49A61EFF31182502383F31288416820
:10006000D2B2856C0B68046D23EA050323430B6051
:1000700082F31188436981681A68096822F00102D5
:10008000D0E908541A60826A1D605C615A60D0E948
:100090000B429C60DA600023B0F86C2030BCCA626E
:1000A00003777047002A4FEA014C034630B508BF7A
:1000B000E64600F1C00514BF8E468C460024196840
:1000C0000C3353F8042C43F8084C41EA0C0142EA83
:1000D0000E02AB4243F80C1C43F8042CEFD1D0F8CD
:1000E000C03043EA0E03C0E93144C0F8C03030BD2F
:1000F00010B40C4C6368002B11DD002004F1080CD7
:100100000146DCF8AC3003F1C00259600C33934275
:10011000FBD1013063680CF5867C8342F1DC5DF82D
:10012000044B704704000020F0B5404C04EB401332
:1001300093F8543403B9F0BD3D4B42011D7893F858
:1001400001C065450CD00CEB4C0E03EBCE0E9EF8B7
:1001500004604FEA4C0E771E012F5AD9032E52D05D
:100160002244A2F83814EFF31181902383F312880C
:1001700092F83A34C9B2B2F8380443EA4003002096
:100180009BB282F83A0481F311881909207881EA38
:1001900013215940D8B1C9431B01D2F8505401244E
:1001A000D2F83C049BB201F00F01D5F8AC2084409A
:1001B0000B4302F1C000590013F4004F8BB202D17F
:1001C0005168214351600C329042F4D1F0BDD2F815
:1001D0003C041B01D2F8502401F00F0110309BB2F7
:1001E0000124D2F8AC200B43844002F1C000590036
:1001F00013F4004F8BB202D15168214351600C328D
:100200009042F4D1F0BD0CF1010606F00306AE42B7
:10021000A6D0E64403EBCE030344597C00299FD0CB
:10022000A318012083F83A049AE700BF04000020D5
:10023000A01C0024704700BF024B03EB401393F84F
:100240005504704704000020D0E90920131A5842D1
:100250005841704790F8573830B53BB990F8551869
:10026000012490F85638DAB2914200D830BD04FA31
:1002700003F2B0F85E5801332A43A0F85E28F2E793
:100280000379024613F0010006D0D2E90731D268A3
:100290005B1A013A03EA0200704710B5037904467D
:1002A00013F001030ED0FFF7EBFF034650B1226AB3
:1002B0006369E1689B5C0132B2FBF1F0DBB201FBE8
:1002C00010222262184610BD03799B070AD5436AA3
:1002D0008269D154436A02690133B3FBF2F102FB34
:1002E00011334362704770470171704703790146CB
:1002F00013F0020007D00B69D1E90921013B521A22
:100300001A40D2B2981A70470C4B4FF0E02C10B440
:100310005A6EDCF81800596E8A42F9D1996E8842FB
:10032000F6D8DC6E4FF47A7101FB04F31B1AB3FBB1
:10033000F4F35DF8044B01FB02307047A01C00246D
:1003400010B584464FEA810E102312F4004F4FEA95
:10035000420214BF0E240724013B92B2CCF80040A5
:10036000F444F2D100EB81128C010351122042F8C7
:10037000213010BD10B584464FEA810E0424130BC2
:10038000013C4FEA021203EB430392B203F118035C
:10039000CCF80030F444F2D100EB01130A01845090
:1003A000062043F8214010BD704700BF704700BFD2
:1003B00000EB4000024B03EBC00393F84905704784
:1003C00004000020064B93F8F825824206D900EB82
:1003D000400003EBC003D3F84C0570470020704782
:1003E00004000020174B93F8FC2532B3D3F83825CE
:1003F0000AB100211160D3F850250AB10021116023
:10040000D3F868250AB100211160D3F880250AB11C
:1004100000211160D3F898250AB100211160D3F8AA
:10042000B0250AB100211160D3F8C82532B10021EE
:10043000D3F8E035116000221A607047D3F8E03538
:10044000F9E700BF04000020174B93F8FC2532B3F6
:10045000D3F838250AB100211160D3F850250AB12C
:1004600000211160D3F868250AB100211160D3F88A
:1004700080250AB100211160D3F898250AB1002126
:100480001160D3F8B0250AB100211160D3F8C82556
:1004900032B10021D3F8E035116000221A607047B4
:1004A000D3F8E035F9E700BF04000020BA4B1B7811
:1004B000002B40F04381B94B93F8FC25002A00F053
:1004C0003D8193F8482570B4002A3CD1D3F8380513
:1004D00093F860150260002940F08A80D3F8502517
:1004E000116093F87825002A40F0AD80D3F86815A4
:1004F0000A6093F89025002A40F0D180D3F8801547
:100500000A6093F8A825002A40F0F180D3F89815E6
:100510000A6093F8C025002A40F01181D3F8B01585
:100520000A6093F8D825002A3AD1D3F8C8150A6092
:1005300093F8F025002A40F03781D3F8E035002207
:100540001A6070BC7047D3F83C25910AA1F5801160
:10055000522940F21B81FE21EFF31180502484F3D5
:1005600012888F4E4FF02C0C556AC0B254690CFBA8
:100570000161013544F00104C1F89850546180F3E1
:1005800011880020D3F8381593F8FC250860002A5C
:10059000D7D093F8602562BBD3F850150A60A0E766
:1005A000D3F8CC25910AA1F58011522900F22881B7
:1005B0007C48465CEFF31181502080F312884FF0A5
:1005C0002C0C556A764CC9B2506901350CFB0644B7
:1005D00040F00100C4F89850506181F31188002068
:1005E000D3F8C81593F8FC250860002AA0D1A8E725
:1005F0006B4ED3F85425910AA1F58011522940F28F
:10060000C880FE21EFF31180502484F312884FF04C
:100610002C0C556A5469C0B201350CFB016144F0E1
:100620000104C1F89850546180F311880020D3F878
:10063000501593F8FC250860002A82D093F878259D
:10064000002A3FF453AFD3F86C25910AA1F580112D
:10065000522940F2C8804FF0FE0CEFF31181502078
:1006600080F312882C26556A4D4CC9B25069013569
:1006700006FB0C4440F00100C4F89850506181F32F
:1006800011880020D3F8681593F8FC250860002A2B
:100690003FF457AF93F89025002A3FF42FAFD3F8DB
:1006A0008425910AA1F58011522940F2A080FE26EE
:1006B000EFF31181502080F312884FF02C0C556A13
:1006C000374CC9B2506901350CFB064440F00100BB
:1006D000C4F89850506181F311880020D3F8801538
:1006E00093F8FC250860002A7FF40BAF29E7D3F8C4
:1006F0009C25910AA1F5801152297BD9FE26EFF3A2
:100700001181502080F312884FF02C0C556A244C34
:10071000C9B2506901350CFB064440F00100C4F831
:100720009850506181F311880020D3F8981593F800
:10073000FC250860002A7FF4ECAE02E77047D3F88E
:10074000B425910AA1F58011522956D9FE26EFF35E
:100750001181502080F312884FF02C0C556A104CF8
:10076000C9B2506901350CFB064440F00100C4F8E1
:100770009850506181F311880020D3F8B01593F898
:10078000FC250860002A7FF4CCAEDAE60548415C1F
:10079000E2E60448415C35E7000000240400002044
:1007A000A01C0024E0980A08D3F8E425910AA1F5DA
:1007B0008011522926D81448465CEFF3118150204D
:1007C00080F312884FF02C0C556A104CC9B2506956
:1007D00001350CFB064440F00100C4F8985050610C
:1007E00081F31188A9E6084810F801C035E70648EA
:1007F000465C5DE70448465C81E70348465CA6E743
:10080000FE26D7E6FE26D8E7E0980A08A01C0024BA
:1008100000EE100AB8EE400A704700BFBCEEC00AF6
:1008200010EE103A98B2704707280AD84FF4B47205
:10083000054B02FB0033B3F80006B0FA80F0400924
:1008400070470020704700BF04000020072807D829
:10085000044B4FF4B471012201FB003383F80226EC
:10086000704700BF04000020072808D8044B03EBA2
:10087000401393F8542412B1012283F83A247047AC
:1008800004000020072808D8054B03EB4013B3F8F9
:100890003804B0FA80F0400970470020704700BF6C
:1008A00004000020054B93F8F825824204D903EB9D
:1008B0004013D3F844047047002070470400002020
:1008C00038B5074B14460D46D3F804331B6A9847D6
:1008D00002464FF40073002012682A60238038BD5E
:1008E000A01C002408B5064BD3F8043323B15B6980
:1008F0009847013840B208BD4FF0FF3008BD00BF37
:10090000A01C0024002070472DE9F0410BB31646CF
:100910000F4603EB0208124CD4F804530023394667
:100920003046AD681A46A8470028F5D0D4F80433FD
:10093000002BFBD05B6998470028F7D0013607F5FC
:100940000077B045E8D1636E0020C4F80833BDE8F5
:10095000F081034C0020636EC4F80833BDE8F081D9
:10096000A01C00242DE9F0413BB316460F4603EBD3
:100970000208154C04E0D4F8041319B14B699847E8
:10098000D4F8041300230D69304639461A46A847A7
:100990000028F0D1D4F80433002BFBD05B699847D2
:1009A0000028F7D0013607F50077B045E8D1636E2F
:1009B0000020C4F80833BDE8F081034C0020636ECA
:1009C000C4F80833BDE8F081A01C00240020704763
:1009D0000020704700207047034B93F83003003825
:1009E00018BF0120704700BFA01C0024816D034682
:1009F0000A6A52681278FF2A09D090F8F020013A6A
:100A000052B2002A80F8F02006DD0120704708224B
:100A1000002083F8F02070470B6A002202205B68F8
:100A20001A707047836D1B6A5B681B78FF2B0AD1B5
:100A300090F9F030002B03F1FF3280F8F020D4BFA2
:100A40000220012070470020704700BF836D1B6AA1
:100A50005B681B78FE2B0CD0FF2B08D190F9F0308F
:100A60005A1E002B80F8F02001DD01207047022083
:100A700070470020704700BF2DE9F0410468D4E9B9
:100A80000435A8611A7D1F681F2A49D9203A202100
:100A90002E6801FA02F242F01802FA602A7D1F2A3B
:100AA00048D9203A202101FA02F242F01802F260FD
:100AB0006A6800215868016038461160116841F089
:100AC0001001116093F80880A269414662F09EF916
:100AD0002D7AE2693046294662F098F9226A636805
:100AE0009468184A12F80800515D5A686FF30F02B3
:100AF00022435A603A5842F001023A50725842F08A
:100B0000010272509A6842F440429A601A6842F0B8
:100B100001021A601A6842F400721A60BDE8F0819E
:100B200020212E6801FA02F242F01802BA602A7DF2
:100B30001F2AB6D8202101FA02F242F01802B26050
:100B4000B6E700BFB81F0B0810B5044667F0BCFA43
:100B50000146204689B2BDE81040FFF7E5BA00BF64
:100B600038B50B4D00EB400005F5A763C40003EB5F
:100B7000C003254493ED027AD3ED037AE7EE007AC1
:100B8000B0EE670A67F0A0FAD5F83835186038BDBE
:100B90000400002002692DE9F843C36812EA030843
:100BA00028D005460E464FF00047B8FA88F327FADA
:100BB00003F21B3BD24308EA02082A61042B16D831
:100BC000DFE803F03B30251A0300B36A002B3FD067
:100BD00003F1FF3900231FFA89F9B362746A34B153
:100BE00023682046494698476468002CF8D1B8F13C
:100BF000000FDAD1BDE8F88370680028F7D0696B80
:100C0000036889B29847B8F1000FCED1F2E7B06817
:100C10000028ECD0A96B036889B29847B8F1000F9F
:100C2000C3D1E7E7F0680028E1D0E96B036889B237
:100C30009847B8F1000FB8D1DCE730690028D6D06A
:100C4000296C036889B29847B8F1000FADD1D1E79C
:100C5000EB6A1FFA83F9C1E78069B43052F05CBED9
:100C6000F8B5A0F507642379DB0725D5657994F8F5
:100C7000543805F001073D46FBB1D4F84C381A68EA
:100C8000D36A5B08536294F8583823B1B4F86238D9
:100C90000133A4F8623885F00101606C5CF09EFFBE
:100CA000012384F85738002384F8553884F85638DF
:100CB000A4F85E3884F85438F8BD94F85768012ECB
:100CC00003D194F8553884F856382046FFF7C2FA15
:100CD0004EB9012385EA030184F85738606CBDE8FA
:100CE000F8405CF07BBF0023394684F85738F5E7BD
:100CF00038B550F8203C0022A0F50764344D1B683D
:100D00005A62A1F12903302B31D895F89F3495F818
:100D1000A0140133DBB2012B85F89F3409D9B4F854
:100D20005E3885F89F245B08A4F85E384B1C85F874
:100D3000A03495F8A0240023082AA4F8603815D11F
:100D400085F8A034B5F8A23401339BB2032BA5F883
:100D5000A23408D92379DB0705D5E36A94F85E0845
:100D60004BB3216B98470023A4F85E3838BD5B393C
:100D70006C290CD8B4F85E3885F89F245B0843F0E2
:100D80008003A4F85E3895F8A0340133CFE794F8D7
:100D90005938002BCDD1012185F89F34A5F8A23414
:100DA0008023606C84F85918A4F85E3885F8A01484
:100DB0005CF014FFBDE7E3696269D054E369E2685F
:100DC0000133B3FBF2F102FB1133E361CBE700BF68
:100DD000A01C002470B505460A26084C013E00D12F
:100DE00070BD94F9000019F077FD031E04DB6178F3
:100DF000EA185172A278EA540434EFE733990A08EA
:100E000038B557F091F90D490D4CD1F8FC20A4FBF1
:100E100000400C4D42F080720B4B800CC1F8FC205E
:100E20004FF060420949E866C2F8B01F00225A60DC
:100E30001A6842F001021A6038BD00BF00ED00E000
:100E400083DE1B43A01C0024001000E055CEACC57F
:100E500010B50E4CD4F8A4344BB194F8B024998852
:100E6000186802F001031B0101FA03F383615BF0D0
:100E7000BDFED4F80433002BFBD05B6998470028F3
:100E8000F7D0636E0020C4F8083310BDA01C002406
:100E90002DE9F041274D084611461A46D5F8604322
:100EA0003CB12668A3883469234095F85D4384B338
:100EB0008BBBC3062FD10123C5F8E404C5F8EC248D
:100EC000C5F8D4344FF40073C5F8E8345DF09EFBE8
:100ED00008BBD5F8D434002BFBD1D5F8346541F2EA
:100EE0000D17D5F8F044DFF850803604A66041F2C3
:100EF0008832E3680D21204603EA08033B43E360A0
:100F000057F0ACFF58B1D5F824350343C5F8243564
:100F1000ECE7002BCDD14FF0FF30BDE8F0816369E5
:100F200003F4F053B3F5006FE0D16B6EC5F80833EE
:100F3000BDE8F081A01C0024C0E0FEFF2DE9F041D7
:100F4000214D10460A46D5F860433CB12668A18879
:100F50003469214095F85D437CB381BB00215DF08D
:100F6000D1FB60BBD5F8D834002BFBD1D5F8346564
:100F700041F20D17D5F8F044DFF850803604A66032
:100F800041F28832E3680D21204603EA08033B431F
:100F9000E36057F063FF28B1D5F824350343C5F863
:100FA0002435ECE7636903F4F053B3F5006FE6D141
:100FB0006B6EC5F80833BDE8F0810029CED14FF043
:100FC000FF30BDE8F08100BFA01C0024C0E0FEFFA0
:100FD00030B597B000231E4C0DF10702089008466B
:100FE00008218DF8143007938DF828300B938DF875
:100FF0003C301593174D84F8FC136944099004F5AF
:10100000597006959FED107BCDE90232CDE9103382
:101010000122CDE91233022304928DF850200E9361
:101020008DED0C7B51F016FFD4F86433186A00285C
:10103000FCD19DF80730FE2B03D0FF2B0CBF012005
:10104000022017B030BD00BF00000000000000000B
:10105000A01C00244D0A040810B40F4CBFF34F8F9E
:101060000E4BC3F85C42BFF34F8FBFF36F8F0C4B37
:1010700003F13000A3F26C5C5A7A3AB11A7A34F870
:1010800012100CEB420289B2A2F8C0150C33834255
:10109000F2D15DF8044B704780FF002400ED00E0C2
:1010A0000C22002400207047704700BF014856F012
:1010B000F7BC00BF88220024084810B4D0F8E835F7
:1010C000D0F81C4699691A682CB1234600F5BD601A
:1010D0005DF8044B18475DF8044B7047A01C0024D2
:1010E000014856F0DDBC00BFEC220024084810B4D3
:1010F000D0F84C36D0F8804699691A682CB123464E
:1011000000F24C605DF8044B18475DF8044B7047E3
:10111000A01C0024014856F0C3BC00BF502300248B
:10112000084810B4D0F8B036D0F8E44699691A6887
:101130002CB1234600F5D6605DF8044B18475DF8E6
:10114000044B7047A01C0024014856F0A9BC00BF06
:10115000B4230024084810B4D0F81437D0F8484716
:1011600099691A682CB1234600F214705DF8044B9B
:1011700018475DF8044B7047A01C00242DE9F04788
:1011800082B08DF80730431C00F0DB800328054651
:1011900000F3D780994E6423144603FB0063D3F811
:1011A000E825002A00F0CD8093F82906202840F099
:1011B000C28093F82806012800F0BD800120D6F8EF
:1011C000607783F8280605E0D6F86037DB1B192B1B
:1011D00000F2A180936913F40043F5D14FF0640944
:1011E00001204FF0210E4FF0400C09FB05F94FEAAA
:1011F000410806EB090A8AF829E6CAF81C368AF87B
:101200002AC6CAF82C36AAF812067D48536803404D
:1012100043EA41037B4989447B4919430DF10703A4
:101220004846CAF80C3651603A460A2156F076FC18
:10123000002840F0C480DAF8E8158C6205E0D6F8A2
:101240006027D21B0A2A00F2AC808B6913F080035E
:10125000F5D0642202FB0562B2F812369BB2FF2B76
:1012600073D8B2F8123669489BB2A2F81036DBB2D6
:101270004A6848EA03430240134343F000734B605B
:10128000642404FB056405E0B4F812369BB2002B1D
:1012900000F09C803A460A21484656F03FFC002860
:1012A00049D1D4F80C36D4F8E81513F8010BB4F88A
:1012B00010268862C4F80C36013AB4F8123692B29D
:1012C000013BA4F810269BB2A4F81236B4F81236EB
:1012D0009BB2002BD8D0002AD6D18A6912F08002A6
:1012E00008D1D6F86037DB1B0A2B4AD88A6912F07E
:1012F0008002F6D0B4F812369BB2FF2B31D94B687E
:10130000424A1340424A43EA08031A43FF23A4F81F
:1013100010364A60B8E764232020002103FB0563F0
:10132000D3F82C2683F828160243C3F82C2683F81A
:10133000290683F82A16B6F8643701339BB2A6F85B
:101340006437002002B0BDE8F0874B682F480340A7
:101350002F4843EA08031843FF23A2F810364860D9
:101360008EE7B4F8123629489BB24A68A4F81036C2
:10137000DBB2024048EA0343134343F000734B607F
:1013800082E76423202103FB0565D5F82C3685F818
:1013900028260B43C5F82C3685F8291685F82A2609
:1013A000C9E7642202FB0562D2F82C1641F0200145
:1013B000C2F82C16202182F8291682F82A366423D6
:1013C000002203FB056383F82826B4E73946484624
:1013D0005DF0CEFE03460028ADD1D4F8E8252025E7
:1013E0000C48D561516801400120516084F82956AC
:1013F00084F8283684F82A36A4E700BFA01C00240D
:10140000009800FC8822002400200181009C00FC40
:101410000000FF0100E800FE10B1036882889A61B5
:10142000704700BF18B1838802681B04936170473E
:10143000D3B20F2B1FD8114B00B503F17E0E02E083
:101440000333734514D093F800C08445F8D193F862
:1014500001C08C45F4D102EB42020948997800EBB7
:1014600082030430D96000EB820019715DF804FB3F
:1014700000205DF804FB0020704700BF58990A085F
:101480000000002410B40C4C002304F5ED6C01E0C6
:10149000152B0CD003EB430201331CF802108142E0
:1014A000F6D1144494F96A075DF8044B70474FF085
:1014B000FF305DF8044B7047A01C002430B5114D7F
:1014C000002305F1F80C02E001331A2B18D05CF868
:1014D00033408442F8D10CEBC30EDC009EF804E0EC
:1014E0008E45F1D102EB4202074B254403EB82010A
:1014F000043395F8FD4003EB8200CC600C7130BDE5
:10150000002030BDE0980A0800000024F0B100235C
:1015100010B504460E4894F804E000F5ED6C01E0C7
:10152000152B11D003EB430201331CF80210714557
:10153000F6D183186179206893F96A27D3B20F2B0B
:1015400002D8BDE81040B9E7002010BD0020704768
:10155000A01C002401380E4B0E4A00EBC000D2F84C
:10156000D81003EB800310B4D3F8C43083B00A4C16
:10157000A34214BF022301231943C2F8D810D2F8A2
:10158000D82013400193019B03B05DF8044B7047D2
:101590000000002400440258000002400138F8B561
:1015A00000EBC000124C1D46124B04EB80041746A2
:1015B0000E46D4F8C400984214BFA120A0205EF0CB
:1015C00025F8B4F9DA00B909C4F8D460C4F8DC50DD
:1015D0005DF06CFDB4F9DA30002B07DB03F01F007F
:1015E00001225B090449824041F82320F8BD00BF75
:1015F000000000240000024000E100E0234B5B6893
:10160000C3F3080310B4DBB9EFF31183C3B9204B64
:101610004FF0E02C5A6EDCF81800596E8A42F9D16E
:10162000996E8842F6D8DC6E4FF47A7101FB04F3B0
:10163000181AB0FBF4F05DF8044B01FB0200704790
:10164000EFF31181102383F312884FF0E0229469A5
:10165000136913F4803F0E4B03D00120C3F8A80791
:101660009469586EC9B2D3F8A82781F31188D96E4E
:101670004FF47A73024403FB01F0001B5DF8044B46
:10168000B0FBF1F003FB0200704700BF00ED00E08B
:10169000A01C0024BE4803780BB9012070474368A2
:1016A0002DE9F04F002BDFF8109387B0D9F8646074
:1016B00018DD00F108050024B649D5F8F430BFF371
:1016C0004F8F03F59072C1F85C3220339342FAD108
:1016D000BFF34F8FBFF36F8F0134436805F58675F5
:1016E0009C42EADB90F8F815AB4A0491A2FB061283
:1016F000AA4BAB4E5209DFF8C4A2A3FB0213DB08CE
:1017000003EB8303A2EB4303DAB206EB830B06F58C
:1017100038730592009300239846049B984500F087
:101720001481DAF81830DAF80470D3E93D45FFF790
:1017300065FF9C4999F8ADE7012269180190BEF157
:10174000540F99F8AC0702FA07F204EB410104EBDD
:10175000400301D1A9F8B607994240F26A811F8877
:10176000174200F05F815F88174200F070819F8808
:10177000174200F06E81DF8808331742ECD11C1B42
:1017800099424FEA640440F25481281B452828BF3F
:10179000452003EB4000834280F04F8100251F4627
:1017A000AC462946CDE9028EB3F800E00EEA020EFF
:1017B0008E451CD1B3F802E00EEA020E714540F0EE
:1017C0001A81B3F804E00EEA020E714540F015816B
:1017D000B3F80680083308EA0208414508D1984268
:1017E00009D9B3F800E00EEA020E8E45E2D00233CA
:1017F000984200F2E580BCF1110FDDE9028E40F263
:101800001C81DCF1150200F118816749D9F8C00785
:10181000D1F804339C4238BFC1F80443019C231A19
:10182000002B14DB614B03449C4201D92346053352
:10183000C9F8C037D1F80433052B40F20C81053BC1
:10184000DBB289F8AC374FF0FF33C1F804333AB15B
:1018500005FA02F2CCF1140C012505FA0CF515433A
:10186000534BC5F3C43203EB8202D2F8C80105F032
:101870001F0203EB8202D2F8C811C5F34412C5F36C
:10188000842503EB820241EA0031D2F8C82103EB40
:10189000850341EA0211D3F8C83141EA0321454BDF
:1018A00081EA1122D3F81C3A82EA1212013302F0C3
:1018B0000F020F2A40F0A380B1F5803F80F09F8097
:1018C000BEF1540F4FEA111147D03A4AB1F5606F9B
:1018D000C2F81C3A4DD0009B998196F85830059873
:1018E000834210D0DBF8082033689B1A336073689A
:1018F000DBF830209B1A73600023CBF80830CBF85C
:10190000303086F85800336801333360DBF8083034
:101910000133CBF808304FF6FF73994207D1736853
:1019200001337360DBF830300133CBF83030009B8B
:1019300008F101085C360BF15C0B1433B8F1080FA9
:101940000AF1200A00937FF4E8AE0123194A01202E
:1019500082F8183B07B0BDE8F08FB9F8B027B1F5B1
:10196000606F02F10102A9F8B027124AC2F81C3ACE
:10197000B1D199F8013003EB430309EBC3034344AE
:101980005B7C0D2BA7D18023009A9377A5E700BF3E
:101990000400002000ED00E01F85EB51CDCCCCCC45
:1019A00030180020C7FFFF7F0000002420A107009F
:1019B000E0980A08FC100020A01C00243C04002031
:1019C000A3EB070E254F33F8021C4FEA6E0E1140B1
:1019D0000EF1010E87FB0E87A7EBEE774FF0010E9D
:1019E000012FB8BF0127BD40BC44013F0EFA07F7E5
:1019F0003D431F46D8E60433FAE60633F8E6BEF167
:101A0000540F04D1B9F8B0270132A9F8B027144A0D
:101A10004FF6FF71C2F81C3AD2F8183A0133C2F8F7
:101A2000183A5AE702331C1B99424FEA64043FF606
:101A3000ACAE10B1013889F8AC07BEF1540F7FF499
:101A400076AFB9F8B2370133A9F8B2376FE704338C
:101A500095E6063393E60023F3E600BF5655555549
:101A6000FC100020264B70B51A785B789A4242D160
:101A7000244E7368002B22DD06F108000025224C5D
:101A8000D0F8AC30BFF34F8F03F1E002C4F86832F6
:101A900020339342FAD1BFF34F8FBFF36F8F337868
:101AA00013B1037F012B20D042690135716800F525
:101AB00086701368A94243F001031360E0DCFFF76E
:101AC0009DFD124BD3F81C4B002C0DDD03F532634A
:101AD00003EBC4041968083333F8042CC8689C422B
:101AE00042EA0002CA60F5D170BD002380F8FC30E4
:101AF000FEF7ACFAD8E763F051FC0028B8D170BD0E
:101B0000A01C00240400002000ED00E0FC100020D8
:101B1000800AA0F58010522806D8044B1B5C0D2BC0
:101B200002D8034AD056704700207047E0980A0850
:101B3000A81F0B084FF0B042D2F88030D2F88810BE
:101B40000B4003F00103C2F8883023B1024BD3F8F5
:101B5000C407036818477047A01C00244FF0B04228
:101B6000D2F88030D2F888100B4003F00203C2F89C
:101B7000883023B1024BD3F8C80703681847704771
:101B8000A01C00244FF0B042D2F88030D2F8881068
:101B90000B4003F00403C2F8883023B1024BD3F8A2
:101BA000CC07036818477047A01C00244FF0B042D0
:101BB000D2F88030D2F888100B4003F00803C2F846
:101BC000883023B1024BD3F8D00703681847704719
:101BD000A01C00244FF0B042D2F88030D2F8881018
:101BE0000B4003F01003C2F8883023B1024BD3F846
:101BF000D407036818477047A01C0024F8B54FF0BD
:101C0000B043D3F88050D3F88820154005F4787598
:101C1000C3F888507DB1084F0126B5FA85F4C4F1A8
:101C20001F0407EB840306FA04F4D3F8C40703681F
:101C30009847A543F1D1F8BDA01C0024F8B54FF09A
:101C4000B043D3F88050D3F88820154005F47C4584
:101C5000C3F888507DB1084F0126B5FA85F4C4F168
:101C60001F0407EB840306FA04F4D3F8C4070368DF
:101C70009847A543F1D1F8BDA01C002430B10368FA
:101C800082881B691A4214BF01200020704700BFE0
:101C900070B50D4682B00446164640B101680C4B43
:101CA0000C4A0B449B0A02EB4303B3F848025DF075
:101CB000ADFCC5F38101C5F3411305F01302CDE975
:101CC0000016A188206862F0E3F802B070BD00BF82
:101CD0000000FEA7E0980A0800B1D9E770472DE997
:101CE000F84FC14F6423044603FB0073D3F8D0655B
:101CF000002E00F06481D3F8D885B8F1000F04D02D
:101D000098F80630002B40F05A81642303FB0473DB
:101D1000D3F8DC551DB1AB79002B40F05081631C2A
:101D2000DBB2B8F1000F04D0152288F8073088F82C
:101D3000062015B11622EB71AA714FF0640A308BA0
:101D40005DF064FC29460AFB04FA404663F0A6FAFB
:101D5000404607EB0A09DFF8B48299F8E23599F8B2
:101D6000E025002B0CBF4FF01E0B4FF03E0B5946E9
:101D7000FFF7B2FF28469D4D594699F8E125554495
:101D8000FFF7AAFF4C220021284667F033FAD9F862
:101D9000D035974A5B689342C9F8E835DFF870920E
:101DA00040F00F8156F0E2F9D9F82030C3F3021366
:101DB000434493F85C3203F01F039FED8E7A9FED4E
:101DC0008E5AB0EE084AD8406423F7EE003A4FF03E
:101DD000000C07EE900A03FB047340F21458F8EE6F
:101DE000677AB3F8E4A5C7EE275A07EE90AA9FEDED
:101DF000837AF8EEE77AC7EE274ADFED817AB0EE14
:101E0000007AE5EE877AA5EE875A25EE844A37EE0A
:101E1000856A74EEE72ABAF5C87F0CF1010ED5BFCA
:101E20004FF4967278226423322307EE90EAD8BFEB
:101E30004FF416791344A2F13202F8EEE76AC8BFF4
:101E40004FF4827907EE903AD4BF41464FF4FA71CD
:101E500066EEA56AB8EEE77AC7EE267A07EE102A94
:101E600001EB0902B8EEC77A37EE447A77EEE37AEF
:101E7000FCEEE77A17EE903AC7EE267AFCEEE77AA8
:101E800017EE900A07EE909AB8EEE73A07EE902A1E
:101E9000F8EEE77A23EE243A83EE277A37EE453AD6
:101EA00032EEC77AC3EE267A77EEE37AFCEEE77A73
:101EB00017EE901AC7EE267A77EEE37AFCEEE77A11
:101EC00017EE902A02F1020909EB010BB0EE467AF7
:101ED00007EE90BAF8EE677AA6EEA77AF4EEC74A54
:101EE000F1EE10FA79DC43EA00095FFA89F9B9F1F9
:101EF0000F0F74D841EA02091FFA89F9B9F1FF0FEF
:101F00006DD81B05000403F07F6392B200F47F00DC
:101F100003433C4843EA0C7300EA01210B4313439B
:101F20006422284602FB04740027C4F8EC35012320
:101F3000C4F8F075C4F8F435C4F8F875C4F8FC7545
:101F4000C4F80476C4F8087661F054FF94F8293692
:101F5000202BD9B21AD194F82836012B16D024237D
:101F600084F82936D4F8E8351A6822F001021A609C
:101F70001A6822F480521A601A681A601A6842F0CD
:101F800001021A6084F8291684F828760021F07E70
:101F90005DF08CF8F37E01241B4D5A0903F01F03FA
:101FA000002104FA03F345F82230B07E5DF07EF89C
:101FB000B37E5A0903F01F039C4045F82240BDE858
:101FC000F88F56F0D3F8D9F81C30C3F302139844B5
:101FD00098F85C32EFE6F4461DE7013174E7BEF194
:101FE0000F0FF8D100239BE7A01C002488220024B7
:101FF000001C0058286B6E4E0000164300247449E4
:102000000000704200FFFF0000E100E0E0980A08D5
:102010000044025808B100223AE6704770B50E4CF1
:1020200094F8F865AEB104F58764002503E0013546
:102030002034B5420DD0237F002BF8D0E068002279
:102040000028F4D00135217DFFF722FE2034B5426F
:10205000F1D1012070BD00BF0400002070B590F8E0
:10206000EE311C09013C082C0FD81A4E054603F02E
:102070000F0306EB4402B2F86C0240FA03F2D207F7
:1020800003D595F8F921012A01D0012070BD9A40AD
:102090002644013A104067F05DFA96F880320E4A05
:1020A000034402EBC30452F83320A388106918409C
:1020B000ECD0002395F8EF210221204685F8F93174
:1020C000FFF7E6FDD5F85021136843F008031360CD
:1020D000DBE700BFE0980A08A4240024014B43F882
:1020E000201070475040005819481A4B01681A4A8E
:1020F00041F4807130B482B00160D3F8F410FF2451
:10210000CA2041F48031C3F8F410D3F8F41001F47C
:10211000803101915321019D546250625162D3F884
:10212000D030DB010CD40C4B00220C495A659A6567
:10213000DA651A665A669A66196502B030BC70474D
:10214000126D064B9A42EED102B030BC704700BF10
:102150000048025800440258004000583166654269
:102160002DE9F84FD0F85C710446534B00F5967694
:10217000FDB227F0FF09826800F1E00A103D4846F1
:10218000D2F80080A3FB05352D09294660F09AFEA0
:10219000D4F81C210023B2F5807F84F820317FD051
:1021A0000DD8102A00F084805DD8012A46D0042A78
:1021B00016BF6FF400616FF008013C230EE0B2F52A
:1021C000805F71D0B2F5803F3BD0B2F5806F15BF14
:1021D0006FF400616FF008013C230423324608F1DC
:1021E0001806404656F803C001EA0C01F150D4F835
:1021F0001CB1594660F014FBBBF5807F2ED024D86B
:10220000BBF1100F3FD037D8BBF1010F02D0BBF1AB
:10221000040F34D14FF0080C336852462946484623
:1022200043EA0C0333604023C4F8E83060F0EEFD6D
:102230003B6843F010033B60BDE8F88F6FF0080186
:10224000CCE76FF008013C23C8E7BBF5805F22D0E4
:10225000BBF5803F1AD0BBF5806F10D108F11C068A
:102260004FF0080CD8E7402A15BF6FF400616FF0FB
:1022700008013C230023B1E7BBF1400FCAD03C3634
:102280004FF4006CC8E74FF4006CC5E708F1540642
:102290004FF0080CC0E708F11C064FF4006CBBE7D8
:1022A0006FF00801042399E76FF40061042395E7B8
:1022B0006FF4006192E700BFABAAAAAA2DE9F04F24
:1022C000474D85B02B781BB9012005B0BDE8F08FD4
:1022D000444B5C6EFFF792F995F8F8350193002BAB
:1022E00000F0C781404B05F5C065404E0027A3FBB9
:1022F000042300955B09A6FB03263D4AF60802F27B
:10230000347806EB8606A3EB4606D2F8483BC11AA2
:102310001346F2B203F6142A08EB860689460392A6
:10232000B9F1000F05DB009BD3F824314B4500F3D6
:1023300087814FF4B4732A4A03FB072393F82037AD
:10234000002B00F0BF80009D2A48D5F85C11AB68D7
:102350001A68CBB221F0FF01103BA0FB0303264813
:102360001B09C35C0B44A9895C68D368A4B223EA47
:102370000103C4F11604D360072C40F2A3801C4A69
:102380000121D5F86451D2F81C3A8B46AE4602972B
:102390000133C2F81C3A00222868944614E0BCF1CC
:1023A000140F2BDC13F1080748BF03F117073B118B
:1023B0000CEB271C5F1E013102FA03F30BFA07F73F
:1023C0008C4247EA030219D303468C425EF8040F9D
:1023D000A0EB0303E3D8CCF115034FF0150CE9E7AC
:1023E00004000020A01C00241F85EB51CDCCCCCCD8
:1023F000FC100020ABAAAAAAB81F0B08BCF1150F4D
:10240000029F40F013819F48C2F38423C2F344111A
:1024100000EB830300EB8101D3F88C32D1F88C12EE
:102420001B0243EA011302F01F01C2F3C43200EBA6
:10243000810100EB8202D1F88C12D2F88C220B437E
:1024400043EA023383EA132282EA121202F00F02F5
:102450000F2A40F0EB80C3F30F134FF6FF72934245
:1024600000F0E480B3F5606F00F0EE80AAF80C3065
:1024700098F858200398824210D0B168D8F800200C
:10248000521AC8F80020D8F80420316B521AC8F844
:1024900004200022B260326388F85800D8F8002087
:1024A0000132C8F80020B2680132B2604FF6FF7204
:1024B000934207D1D8F804300133C8F80430336BA5
:1024C00001333363009C013708F15C085C36204619
:1024D0000AF1140AFFF744FE04F5B4730093019B5C
:1024E000BB427FF41DAF68490122002381F8182BFD
:1024F000C1F8483B6549D1F8083691F8D8261B68E1
:1025000012F0020FD1F81C171A6A0CBF0A4342EAF4
:1025100081021A62019B012B3FF4D6AE5B49D1F8D0
:10252000703791F840281B6812F0020FD1F8841818
:102530001A6A0CBF0A4342EA81021A62019B022B0B
:102540003FF4C2AE5149D1F8D83891F8A8291B6898
:1025500012F0020FD1F8EC191A6A0CBF0A4342EAD2
:1025600081021A62019B032B3FF4AEAE4749D1F8BA
:10257000403A91F8102B1B6812F0020FD1F8541B4F
:102580001A6A0CBF0A4342EA81021A62019B042BB9
:102590003FF49AAE3D49D1F8A83B91F8782C1B68DE
:1025A00012F0020FD1F8BC1C1A6A0CBF0A4342EAAF
:1025B00081021A62019B052B3FF486AE3349D1F8A4
:1025C000103D91F8E02D1B6812F0020FD1F8241E87
:1025D0001A6A0CBF0A4342EA81021A62019B062B67
:1025E0003FF472AE2949D1F8783E91F8482F1B6824
:1025F00012F0020FD1F88C1F1A6A0CBF0A4342EA8C
:1026000081021A62019B082B7FF45EAE204A52F8C9
:10261000203C92F8B0001B68D2F8F41080071A6AC8
:102620004CBF42EA81020A431A624DE6164AD2F8CA
:10263000183A0133C2F8183AAFB14FF6FF7317E7F3
:10264000002005B0BDE8F08F12494A7802EB420243
:1026500001EBC2023A44527C0D2A7FF407AF80227C
:102660008AF81E2004E7294658220B4866F064FDCC
:10267000E3E719460122044BC3F8481B83F8182BE3
:1026800022E600BFE0980A08FC10002004000020A9
:1026900004100020A01C0024BC1B0020464A92F815
:1026A000881C013949B24B1C00F08480434B48011F
:1026B00003EB411100B5C2F88C1C811D13F801E039
:1026C00003EB010C92F8901C8E455BD09CF802E065
:1026D0008E4555D000F10A0113F801E003EB010C1F
:1026E00092F8911C8E4546D09CF802E08E4540D071
:1026F00000F10E0113F801E003EB010C92F8921CBB
:102700008E4531D09CF802E08E452BD092F8861C85
:1027100031B300F1120113F801E003EB010C92F860
:10272000931C8E4535D09CF802E08E452FD000F1E9
:10273000160113F801E003EB010C92F8941C8E458E
:1027400033D09CF802E08E452DD01A3092F8951CBB
:1027500013F800C003448C4521D0987888421DD0DE
:102760005DF804FB0CF1020CBCF80010A2F8981CF8
:10277000CCE70CF1020CBCF80010A2F8A21CB7E7E1
:102780000CF1020CBCF80010A2F8A01CA2E70CF19E
:10279000020CBCF80010A2F89A1CC8E702331B8890
:1027A000A2F89E3CDCE70CF1020CBCF80010A2F889
:1027B0009C1CCAE7704700BFA01C0024EC9B0A08C1
:1027C0000120704738B5134D41F20D13124941F203
:1027D0008832D5F83405D5F8F0440004A060E068EC
:1027E000014020460B430D21E36056F037FB38B122
:1027F000D5F82425034600201343C5F8243538BDF9
:10280000606900F4F050A0F50060B0FA80F0400973
:1028100038BD00BFA01C0024C0E0FEFF08B5FFF7D4
:10282000D1FFA0B10B4BD3F8600358B1026893F805
:102830005D338088126910402BB9003818BF012021
:10284000013840B208BDB0FA80F04009F8E74FF017
:10285000FF3008BDA01C0024C74BD3F8B414D3F834
:10286000B82470B58C0F93F8005D100EC2F3072CDE
:1028700083F8A84CC1F383640001012D83F8A94CAF
:10288000C1F3016483F8AA4CC1F3074483F8AB4C4D
:10289000C1F30724C9B283F8AC4CC2F3035483F8E4
:1028A000AD1CA3F8AE0CC2F3C030B3F8AE1C89B2B5
:1028B00041EA0401C2F30344A3F8AE1CC2F3403161
:1028C00083F8B04CC2F3803483F8B10C4FF00000B1
:1028D00083F8B24C83F8B31CC2F3003183F8B41C04
:1028E000D3F8BC1483F8B50C40F2EF80022D00F051
:1028F000C3802A204FEA4C0C83F8C14CC1F3C012AC
:1029000001F07F010CF07E0C83F8C2CC4FF0010C7B
:1029100093F8C24C1443D3F8C02483F8C24CD40FAC
:1029200083F8C31C910D83F8C44CC2F3417401F0C9
:102930000C01C2F3815583F8C54CC2F3826483F85D
:10294000C64C83F8C71C93F8C71CD3F8C44429436A
:1029500083F8C71CC2F3405183F8C81C002183F8D8
:10296000C91CC2F3004183F8CA1CC2F3C03183F80A
:10297000CB1CC2F3803183F8CC1CC2F3403183F806
:10298000CD1CC2F3003183F8CE1CC2F3812183F841
:10299000CF1CC2F30121C2F3460283F8D01CC4F35A
:1029A000074183F8D12C220E090283F8D2CC83F898
:1029B000D42CC4F30722A3F8D61C2406B3F8D61CE3
:1029C00089B21143A3F8D61CD3F8C814C3F8D84C65
:1029D0000C0ED3F8D82C42EA0442C3F8D82C0A0AC9
:1029E000D3F8D84C02F47F422243C1F30724C9B282
:1029F000C3F8D82CD3F8D85CD3F8CC242C43C3F834
:102A0000D84C83F8DC1C110E83F8DD1C110C090670
:102A1000C3F8E01C1102D3F8E04C0A4601F47F0130
:102A2000214392B2D3F8D044C3F8E01CD3F8E01CA1
:102A30000A43C3F8E02CC4F30352D3F8E01C41EA84
:102A40001461C3F8E01C93F8E41C1143C4F307229B
:102A500083F8E41C210A01F47061A3F8E61CB3F8C2
:102A6000E61C89B21143C4F34602A3F8E61C83F8BE
:102A7000E82C83F8E9CC70BD1204C1F3072C0D0ECD
:102A800002F47C12C3F8B82CC1F30742D3F8B84C57
:102A900044EA0524C3F8B84CD3F8B84C22434FF4A9
:102AA0000074C3F8B82CD3F8B82CC3F8F84C013232
:102AB00040F10004A40244EA92549202C3F8F44C98
:102AC000C1F38034C3F8F02C14E74FEA8C2CC1F327
:102AD000C26594000CF44062C1F3072C04F47F74C7
:102AE000C3F8B82CD3F8B82C1443CA0BC3F8B84CAD
:102AF00002F00602D3F8B84C44EA9174C3F8B84C1B
:102B0000C1F3026483F8BC5C012583F8BD4CC1F3BA
:102B1000425483F8BE4CC1F3824483F8BF4CC1F3E6
:102B2000C03483F8C02C93F8C02C224383F8C02C07
:102B3000D3F8B84C93F8C02C93F8B06C023205FA75
:102B400002F2B540D617A2FB052EC3F8F85C05FBD0
:102B500006EE04FB0EEE0134A2FB0424A644520A46
:102B6000C1F3803442EACE52C3F8F02C4FEA5E2221
:102B7000C3F8F42CBEE600BFA01C00240E4838B5F4
:102B8000D0F860330D4614463BB1196890F85D23C8
:102B90009B8809690B4052B15BB9FFF75DFE074A9C
:102BA0004FF400730020126C2A60238038BD002B84
:102BB000F3D14FF0FF3038BDA01C00245029002471
:102BC0005BF046BB5BF044BB2DE9F8432422D0F810
:102BD000505100238168C0F8D02104462A6800F5CE
:102BE000A87622F001022A602B606B60AB6042790C
:102BF000C0F8D83180F8CC31C0F8D031C0F8683195
:102C0000C0F8D431C0F870319302C0F8541103F405
:102C10008053BC49C0F8583113038D4203F400536C
:102C2000C0F85C314FEA022303F48063C0F86031DE
:102C300000F0AB812379D80703F0020100F1408155
:102C4000002940F07181C4F8641194F8F8314BB157
:102C5000D4F8783143F00803C4F878314FF40043D6
:102C6000C4F8883112F00802D4F8D03100F06E8137
:102C7000002B00F0AD8124233046C4F8D0312B68FE
:102C800023F001032B6055F099FE012817D0D4F8EA
:102C90007831002B40F09F816B68304623F49043DD
:102CA0006B60AB6823F02203AB60AB6843F00803B2
:102CB000AB602B6843F001032B6060F0C5F994F81A
:102CC000048018F0010F6FD0D4F82C71002F00F0A1
:102CD0006C8100234FF4807C04F13C09E763236698
:102CE000E3664846C4E91133C4E91433C4E919332F
:102CF000D4F83431C4F8B8304FF48063E3644FF44F
:102D00008033C4E916C361F00FFA484651F098F8D1
:102D1000D4F8D431C4F8C891202B666741D1E36858
:102D2000626998B2EAB3B0FA80F14909C8B394F87D
:102D3000CCC1BCF1010F34D04FF0220CC4F8D81133
:102D4000A4F8AC010120C4F8D4C1DFF8D0C1C4F8A4
:102D5000A821C4F878C0DFF8C8C1C4F88C10C4F842
:102D60007CC0DFF8C0C184F8CC01C4F888C094F8F6
:102D700070C084450CD084F8700094F8710001286C
:102D800000F031814FF4006384F87010C4F8903083
:102D90001023C4F8D831002384F8CC312023C4F8A0
:102DA000D0317B68C4F8443118F0020F00F08680FF
:102DB000D4F83051002D00F0EC80D4F838210023F5
:102DC00004F1B407C4F8C0303846C4F8C830C4E9C8
:102DD0002D524022C4F8BC204FF48062C4F8C420B5
:102DE0004FF48032C4E93333C4E93633C4E93833AD
:102DF000C4F8D42061F098F9384651F021F8002841
:102E000040F0A380404B4149414A8D4218BF9D424A
:102E1000404801F16001C4F8C4710CBF01230023D4
:102E2000C4F8EC60954208BF43F00103303285429C
:102E300008BF43F001036030954208BF43F001032F
:102E400030328D4208BF43F0010301F568719542AD
:102E500008BF43F0010302F55C72854208BF43F0EE
:102E6000010300F56870954208BF43F0010330325A
:102E70008D4208BF43F001036031954208BF43F023
:102E800001033032854208BF43F00103954208BF79
:102E900043F0010330328D4208BF43F001039542F5
:102EA00008BF43F001033BB91B4BEB1AB3FA83F3A2
:102EB0005B09002B00F0AF8000236B60BDE8F88356
:102EC0000423C4F8643171B10C23C4F86431D3070E
:102ED0007FF5BBAED4F878314FF4803143F0020374
:102EE000C4F8801128E0D3077FF5AFAED4F878316D
:102EF00043F00203C4F878314FF48033C4F88031D2
:102F0000A3E600BF000C0058100002402800024059
:102F10004000024058000240B8040240B14C090889
:102F2000E54C0908E94C09080823D107C4F86431C5
:102F30007FF58BAED4F8783143F00103C4F87831D3
:102F40004FF40033C4F87C317FE6FEE70BB194F810
:102F5000CC21242384F8CC213046C4F8D0312B680E
:102F600023F001032B6055F029FD01283FF4A7AEA3
:102F7000D4F87831002B32D16B68304623F490437B
:102F80006B60AB6823F02A0392E60423C0F8743127
:102F900050E6D4F8DC311A6842F080021A601A68F0
:102FA00042F040021A60BDE8F883D4F8DC311A68B8
:102FB00042F480721A609A6842F001029A601A68BC
:102FC00042F020021A601A6842F010021A60EBE622
:102FD00084F8CC314FE6304655F0E8FE5CE63046EA
:102FE00055F0E4FEC8E79BB2484605F1240154F0D1
:102FF000F9F800287FF4CCAE84F8CC012B6843F4B8
:1030000080732B60AB6843F00103AB60AB6843F0A7
:103010004003AB60C5E66B6050E700BF38B50409FC
:10302000013C082C1AD80F4D00F00F0305EB4402A9
:10303000B2F86C0240FA03F212F0010210D0012241
:10304000254402FA03F3013B184066F083FA95F831
:103050008032054A034402EBC30038BD002038BD6E
:10306000104638BDE0980A08A42400242DE9F04752
:10307000984D05EB0013D3F8044D002C00F08F8021
:10308000B3F80E7D06464FEA001938465CF0BEFAEA
:1030900001227B0907F01F07023BBA40082B0FD81B
:1030A000DFE813F0BF00C700CF00D700DF00090042
:1030B000E700EF00B7008849CB6F23EA0203CB6734
:1030C00005EB0903013693F8080DF6B2FFF7A6FFEA
:1030D000074610B11223C671837105EB090393F8FB
:1030E000090DFFF79BFF824610B11323C671837150
:1030F00005EB090393F80A0DFFF790FF804610B126
:103100001423C67183714D4450462E2195F80C2D21
:10311000FEF7E2FD95F80D2D40460E21FEF7DCFD91
:1031200095F80B2D2E213846FEF7D6FD23686B4A05
:1031300023F001039442236033D0694B9C423ED17B
:10314000654BD3F8902042F48042C3F89020D3F826
:10315000902022F48042C3F89020E36843F00043BB
:10316000E360A36823F4F073A3602368DA0716D43E
:10317000A1685C4A5C4B0A401343A360E368DB0030
:1031800042D5E268594B134043F0E863E36023689B
:1031900023F400632360236D23F001032365BDE85E
:1031A000F0874D4BD3F8982042F48052C3F8982012
:1031B000D3F8982022F48052C3F89820CDE74C4BE6
:1031C0009C4213D04B4B9C4263D04B4B9C426ED1E4
:1031D000414BD3F8982042F48012C3F89820D3F8DA
:1031E000982022F48012C3F89820B6E73A4BD3F81F
:1031F000902042F40042C3F89020D3F8902022F4AB
:103200000042C3F89020A8E7236843F4805323606A
:10321000B7E73149D1F89C3023EA0203C1F89C306A
:103220004EE72D49D1F8983023EA0203C1F89830CF
:1032300046E72949D1F8903023EA0203C1F89030DB
:103240003EE72549D1F8943023EA0203C1F89430CF
:1032500036E72149D1F8803023EA0203C1F88030F3
:103260002EE71D49D1F8843023EA0203C1F88430E7
:1032700026E71949D1F88C3023EA0203C1F88C30D3
:103280001EE71549D1F8883023EA0203C1F88830D7
:1032900016E7114BD3F8982042F40052C3F8982057
:1032A000D3F8982022F40052C3F8982055E7134B26
:1032B0009C427FF452AF03F50C33D3F89C2042F0CC
:1032C0002002C3F89C20D3F89C2022F02002C3F8EF
:1032D0009C2042E7A01C002400440258003001401A
:1032E00000380040E0FFBF8F07000020FFFF39D803
:1032F000003C0040003401400050014000140058E0
:1033000008B51D20FFF78AFE08B183794BB11E2056
:10331000FFF784FE08B1837903B108BD5523C3804C
:1033200008BD5523C380F2E72DE9F04FDFF8CCA2AA
:103330009BB09AF8641D31B1A74B93F8084320461F
:103340001BB0BDE8F08F01200AF59E657C228AF84B
:10335000640D284665F04EFFDAF88C6C4FF480520D
:103360009AF8867C3468CAF8F824CAF8F0441FB189
:103370004FF48042CAF8FC2401224FF4003CC5E916
:1033800004C29AF82025002A00F095810322934F69
:103390008AF82025FA6CD60340F132810AA854F04D
:1033A0001FFF0C988E4A010AA2FB012109094D005A
:1033B0006668A8428B4A02EA060242EA010262609B
:1033C000226842F00302226080F0F880DAF8601789
:1033D000DAF86027521A022AFAD9002282497E4E70
:1033E0000492A260E2681140D6F80C2341F48051A7
:1033F000E1607E49A1FB021B41F288324FEA5B2B60
:1034000002FB0BFB5A46002A00F0BE80616B013ABA
:103410000806F8D5764A7449A2634FF4D572A260C3
:10342000E268114041F208120A43E260BBF1000F6A
:1034300009D05A46616B11F0450F02D0890440F162
:103440008681013AF6D10022CAF82C25A260664A8C
:10345000E1680A4042F48052E2605A46002A00F0D5
:103460009380616B013A0D06F8D5614A0025A2638D
:1034700004994FF6FE72914200F2B281DFF8689132
:103480005C4FDFF86C8100222046A26041F23712C7
:10349000E16801EA09010A433721E26041F288321A
:1034A00055F0DCFC002871D1A76041F22912E168D7
:1034B00001EA09010A43E260BBF1000F08D05A4655
:1034C000616B11F0450F01D0880404D5013AF7D1A2
:1034D0004FF080505AE0626B510700F10D83C4F841
:1034E00038806169049A002902F101020492049A69
:1034F00003DB4FF6FE708242C5D904984FF6FE7288
:10350000904200F28F834A0040F16E8122680127C9
:103510009307CAF8287500F0F7820022DFF8C88008
:103520002046A26041F20232E16801EA08010A4342
:10353000E26055F035FD48BB626904F1180304F1FF
:103540001C09CAF85C25A2690193CAF86025E269E2
:10355000CAF86425226ACAF8682541F20312A060FD
:10356000E16801EA080104F120080A43E260BBF1C6
:10357000000F09D0626B12F0450F02D0910440F1A8
:103580005483BBF1010BF5D14FF0004001228AF8C2
:103590002025DAF824250243CAF824252A242046C7
:1035A00086F808431BB0BDE8F08F616805460D4AF8
:1035B0000A406260226842F0030222600E49B0FBBA
:1035C000F5F5B1FBF5F1DAF860070231DAF86027BA
:1035D000121A9142FAD800E7000000240044025871
:1035E000598B4F01002CC0FFC0E0FEFFD34D62108D
:1035F000C5002000000010C110210100A01C002403
:10360000BD6AB96AFE6A11F47C7F7A6BC1F305105A
:10361000CBD0C2F3CC0206F0010605F0030507EE9D
:10362000900A06FB02F2012DF8EEE76A07EE102A77
:10363000BAEEE97A00F08982022D00F0AD80002D0B
:1036400040F083823A68950640F1F9843968B7EE14
:10365000006A3A6BC1F3C101C2F30803584A07EE8E
:10366000903ACA40F8EEE77A77EE867A37EE877AB4
:1036700007EE902AB8EEE76AC6EE267A67EE877AFA
:103680005049F7EE006A504D0A6B0A6B096BC2F3A2
:10369000064307EE103AB8EEC77A37EE267AC7EE41
:1036A000876AFCEEE67A17EE900A010AA5FB015143
:1036B00009094D007CE6454A944200F06982444A7B
:1036C000944200F081829AF8A00CFFF7A7FC834691
:1036D0009AF8A20CFFF7A2FC05469AF8980CFFF79F
:1036E0009DFC9AF89A3C04469AF89C9C9AF89E8C09
:1036F0000193BBF1000F05D058469AF8A12C0E217A
:10370000FEF7C6FA2DB128469AF8A32C0E21FEF733
:10371000BFFA2CB120469AF8992C0E21FEF7B8FA80
:10372000002F40F0F4810021B6F904005BF0BEFCEC
:10373000B6F90420002A07DB02F01F040121520918
:103740002448A14040F82210DAF8F0441EE6626BEB
:10375000520700F1AA82626BD3071AD4626B570634
:1037600001D54022A263002201251B492046CAF848
:103770002C55A260E268114041F237120A4337210A
:10378000E26041F2883255F069FB00283FF470AEE8
:103790009EE60122A26356E6DFED107A87EEA66A66
:1037A0003A6BC2F3080307EE903AF7EE005AF8EED0
:1037B000E77A77EEA57A77EE877A67EE867A5FE723
:1037C0000090D00300440258598B4F010070005202
:1037D0000024024800E100E0C0E0FEFF0024F44ABB
:1037E0000499914200F21E822268900700F08C81B9
:1037F000DAF82875032F7FF490AEDAF84C15DAF872
:103800005025A069000DCAF83005880F8DF82800F2
:10381000C1F383608DF82900C1F301608DF82A009F
:10382000C1F307408DF82B00C1F30720C9B28DF812
:103830002C008DF82D10110DADF82E10C2F30341A0
:103840008DF83010C2F3C0318DF83110C2F38031E1
:103850008DF83210C2F340318DF83310C2F30031CD
:103860008DF8341000218DF83510002F40F07A814A
:1038700040F6FC7101EA8202DAF8541542EA9172CC
:103880000E92C1F3C2628DF83C20C1F302628DF842
:103890003D20C1F342528DF83E20C1F382428DF8A3
:1038A0003F20C1F3C2328DF8402001220E989DF8CE
:1038B00040C010440CF0070C0CF1020C00FA0CF0A4
:1038C0009DF830C00CF00F0CCAF8380502FA0CF263
:1038D000CAF83C25520A00FB02F2CAF84025DAF881
:1038E00034054FF4007BDAF858254FF001094FEA10
:1038F0000048C1F38030CAF844B58DF84100C1F3E7
:10390000C61001F07F018DF8420020468DF843106B
:10391000D10F8DF84410C2F341718DF84510C2F3F8
:1039200082618DF84610C2F383518DF84710C2F3BF
:1039300040518DF8481000218DF84910C2F3004124
:103940008DF84A10C2F3C0318DF84B10C2F38031AC
:103950008DF84C10C2F340318DF84D10C2F3003198
:103960008DF84E10C2F381218DF84F10C2F3012162
:10397000C2F346028DF850108DF8512041F2071223
:103980008DF85290C4F80880E16821F48F3121F459
:103990009F7121F001010A430721E26041F2883260
:1039A00055F05CFA00287FF4F1ADC4F808B041F29C
:1039B000101BE2681021204622F48F3222F49F72FD
:1039C00022F0010242EA0B02E26041F2883255F035
:1039D00045FA002840F0BC80DAF8609762699101EE
:1039E00000F18F80402310212046A360E26822F47A
:1039F0008F3222F49F7222F0010242EA0B02E2604F
:103A000041F2883255F02AFA00284CD1C4F80880D7
:103A100041F23712E168204621F48F3121F49F7181
:103A200021F001010A433721E26041F2883255F06A
:103A300015FA002837D14FF0FF3240236262A362AB
:103A400001301F28FCD9E26A2046A14922F0FF027A
:103A500042F06302E2620022A260E268114041F299
:103A60000D120A430D21E26041F2883255F0F6F959
:103A7000C8B90AA806E0DAF86027A2EB0902013209
:103A800000F01781626B12F4957F626B40F0148135
:103A90001204F0D500F12001D4F8802040F8042B66
:103AA0008142F9D1E7E7DAF82425CAF82425894AC2
:103AB0000121A263DAF8242502432046CAF824250E
:103AC0008AF820154FF40071814AA160E1680A402C
:103AD00041F21011114341F28832E160102155F09A
:103AE000BDF900283FF45AAD7A4AA2630122CAF810
:103AF00024058AF8202551E504224FF08050A26366
:103B000044E54FF40060D2E74FF080603EE5019855
:103B1000FFF784FA20B19AF89B2C0E21FEF7B8F833
:103B20004846FFF77BFA20B19AF89D2C0E21FEF74C
:103B3000AFF84046FFF772FA9AF89F2C00283FF43E
:103B4000F2AD0E21FEF7A4F8EDE5DFED637A25E690
:103B5000604AA263DAF824250243CAF824258AF8C9
:103B600020951BE5012F4FD11204DAF8541502F409
:103B70007C1242EA11420E924FF40072CAF83C25C0
:103B80000E9A01329202CAF83825CAF84025A6E6F4
:103B9000524AD2F8D41021F48031C2F8D410D16F37
:103BA00041F48031D167D16F21F48031D167D2F8EF
:103BB000D41041F48031C2F8D410D2F8D42002F4E9
:103BC00080320392039A7EE5444AD2F8DC1021F455
:103BD0000071C2F8DC10D2F8841041F40071C2F810
:103BE0008410D2F8841021F40071C2F88410D2F845
:103BF000DC1041F40071C2F8DC10D2F8DC2002F4D1
:103C000000720292029A5EE5324A01214FF0805022
:103C1000A263DAF8242542F08052CAF824258AF8F3
:103C20002015B3E44FF08070B0E4626B520700F1EE
:103C30000F82626BD30700F106822269D2B2032A97
:103C400040F00382264AA263626912F4604F0AD0F0
:103C5000540400F10B8212F4004F14BF4FF4805053
:103C60004FF4803092E4120C19492046CAF83425EA
:103C70001204A260E268114041F209320A43E26094
:103C800055F08EF900287FF481AC6169019BCAF878
:103C90004C151A68CAF85025D9F80000CAF854051E
:103CA000D8F80000CAF85805ABE50422A263FFF774
:103CB000CABB4FF00040FAE6130700F1D581626BF2
:103CC000910700F1CF81626B920615D5C8E100BF64
:103CD000C0E0FEFFFF0FE01F0024744A00440258BA
:103CE000C5002000D4F88010DAF8602740F8041BE3
:103CF000A2EB09020132DCD0626BD304F2D4DDE91D
:103D00000C120A984FF4007B4FEA11490B9B5FFAA3
:103D100082FE4FEA102C29F0FF091BBA49EA0E096E
:103D20002CF0FF0CDFF860E34CEA106CC4F838E0CC
:103D3000C0F3811EC0F340101FFA8CFC8DF814E014
:103D40008DF81500C8B2ADF816C006938DF81C00AA
:103D5000C1F30720C1F303518DF81D0020468DF8F3
:103D60001E10C2F38521ADF820908DF82210C2F309
:103D700001218DF82310C2F3031102F00F028DF818
:103D800024108DF825209DF83B20BA498DF8262077
:103D9000C4F808B0E268114041F210120A43102141
:103DA000E26041F2883255F059F800287FF49CAE69
:103DB0009DF82420012F9DF82510D2B2DAF8FC944A
:103DC000C9B200F0B5800322CAF848058AF8202558
:103DD000B9F5004F00F0C580B9F5804F00F00581BE
:103DE000B9F1000F00F0C480DAF8242542F0006237
:103DF000CAF82425DAF8242502B39F494FF400724B
:103E00002046A163A2609B4AE1680A4041F210117A
:103E1000114341F28832E160102155F01FF800286B
:103E200000F0DE80944AA2630122DAF824150843E8
:103E3000CAF824058AF82025FFF7B0BBDAF8040594
:103E4000DAF8F4240328DAF8F834DAF8001509D897
:103E5000DAF848E5BEF5007F04D0BEF5807F14BFD8
:103E6000042002201A4363680A43844919400A4324
:103E700042EA0902DFF8FC910243204662604FF4F7
:103E80000072A26041F21012E16801EA09010A43DE
:103E90001021E26041F2883254F0E0FF0028C1D1E5
:103EA000012241F20D1B8AF82025DAF860370193D0
:103EB0000AE0DAF824250243CAF82425DAF8602754
:103EC000019BD21A013243D0C4F808800D21E26868
:103ED000204602EA090242EA0B02E26041F288321D
:103EE00054F0BCFF0028E4D1626902F4F052B2F54C
:103EF000006FE3D1002F624F4FF00101CAF8240593
:103F000007F1980218BF0225CAF81C05044607F1FC
:103F1000A80C8AF820158AF8005D07F110050FCA71
:103F200087E80F009CE80F0085E80F00FFF737BB1C
:103F30000A4305D00322CAF848B58AF8202547E786
:103F40004FF48072CAF8482503228AF820253FE7FB
:103F50004FF000410122CAF824158AF82025FFF706
:103F60001DBBDAF8242542F08052CAF8242541E727
:103F70006269002000219201CDE90A015CD40AA8FF
:103F80005AF056FC024628BB0B9AD30365D5C4F8F9
:103F9000088041F23712E1682046DFF8D8B001EA24
:103FA0000B010A433721E26041F2883254F056FF98
:103FB000024678B9C4F80890E16841F2061220463A
:103FC00001EA0B010A430621E26041F2883254F013
:103FD00045FF0246DAF824150A43CAF8242509E702
:103FE00001228AF82025FFF7D9BA00206269002152
:103FF000CDE90A0190011FD40AA85AF019FC024623
:104000000028E7D10B9A510327D5C4F8088041F264
:104010003712E1682046DFF85CB001EA0B010A4381
:104020003721E26041F2883254F018FF024600283E
:10403000D0D10222A260BFE74FF40062CAE7DFEDF1
:10404000117AFFF7ABBB0122A2630120FFF79EBAF2
:1040500004221046A263FFF799BA4FF08062B9E7D5
:10406000202024E5022022E5082020E54FF400501E
:10407000FFF78CBAC0E0FEFFFF0FE01F002CC0FF6F
:10408000542100240024744C3A0F00182DE9F04705
:10409000344C94F8A00CFEF7C1FF064694F8A20C2D
:1040A000FEF7BCFF054694F8980CFEF7B7FF94F8AE
:1040B000868C074694F89CAC94F89A0C94F89E4C25
:1040C0000EB11823F3800DB11923EB800FB11A2321
:1040D000FB80B8F1000F15D138460121FDF79CF99E
:1040E000FDF798FF30460121FDF796F92846FDF7C8
:1040F00093F93046FDF78EFF28460121BDE8F047D1
:10410000FDF788BFFEF78AFF814608B11B23C380F5
:104110005046FEF783FF804608B11C23C38020462B
:10412000FEF77CFF044638460CB11D23E3800121D5
:10413000FDF772F9FDF76EFF4846FDF76DF9404651
:10414000FDF76AF92046FDF767F901214846FDF7BA
:1041500061FF40460121FDF75DFF01212046FDF78B
:1041600059FFBFE7A01C0024F8B50E4C94F8F87571
:10417000A7B104F5C064C7F109070925013D0FD0B7
:10418000A6683079FEF74AFF94F8DC10F27908B19E
:10419000FDF77EFDAF4204F5B474EFD10120F8BD08
:1041A000AB68FFDE0400002010B51B4C94F8690DCD
:1041B000FEF734FF28B11F210022C1802021FDF726
:1041C00067FDD4F8A4344BB194F8B02499881868EA
:1041D00002F001031B0101FA03F3836194F9872CB8
:1041E00000210320FDF724F950B1D4F860335BB10E
:1041F000196894F85D239B8809690B4012B91BB9B3
:10420000012010BD002BFBD1FFF78EF80028F7D15D
:10421000636EC4F8083310BDA01C002410B580786C
:10422000FEF7FCFE90B10A494FF0410C0446002213
:10423000D1F8703D80F806C00133C1F8703D2021EF
:10424000C371FDF725FD2368A2889A6110BD00BFE8
:10425000A01C0024F8B50446EFF31185502383F326
:104260001288D0F830311B6803F001031BB1EDB2A6
:1042700085F31188F8BDD0F8D021D0F8D4110A43C5
:1042800002F02102212AF2D0D0E90912914250D045
:1042900090B24BD8194623691B1A9BB2A162002128
:1042A00084F8E011D4F8D0112029E0D1A16989184F
:1042B000DDD0B3FA83F25209002BD8D094F8CC01A8
:1042C0000128D4D02120A4F8A6314FF0010CC4F865
:1042D000D821C4F8D001D4F8C401D4F85061C4F88E
:1042E000A011A4F8A43184F8CCC160B31B4F90F89E
:1042F00034E0C7631A4FE64502650764194FC76487
:104300000AD090F8357080F834C0674515D04FF466
:10431000006380F834204365102100222023C4F874
:10432000D81184F8CC21C4F8D031A0E7081A83B2A0
:10433000B4E7012380F8E03199E706F1280252F052
:1043400051FF0028E8D100234022326284F8CC31AA
:10435000B36843F08003B36089E700BF894C090864
:10436000AD4C0908E94C0908BFF34F8F0549064BCE
:10437000CA6802F4E0621343CB60BFF34F8F00BF03
:10438000FDE700BF00ED00E00400FA051C481D4AEF
:10439000C1681D4B10B44FF6FF0485B021401B4C83
:1043A0000A43C260D3F8D010D3F8DC20C4F8741DDF
:1043B00042F00052C3F8DC20D3F8DC2002F00052B7
:1043C0000192019AD3F8DC2042F08042C3F8DC204D
:1043D000D3F8DC2002F080420292029AD3F8DC206B
:1043E00042F00042C3F8DC20D3F8DC3003F0004395
:1043F0000393039B05B05DF8044BFCF701BD00BFC0
:1044000000ED00E00005FA0500440258A01C00245D
:1044100008B51D480023C0F88430BFF34F8F4369AF
:1044200023F480334361BFF34F8FD0F8803043F6DD
:10443000E074C3F34E3CC3F3C90E4FEA4C1C0CEAC4
:104440000401734641EA8372013BC0F874225A1C8E
:10445000F8D1ACF1200C1CF1200FF0D1BFF34F8F3D
:10446000BFF36F8FBFF34F8FBFF36F8F436900228E
:1044700023F400334361C0F85022BFF34F8FBFF3E2
:104480006F8F72B6FFF770FF00ED00E003689B0AC4
:10449000A3F58013522B54D870B5364C14F803C0D2
:1044A000BCF10D0F4CD843794FF04C0E324802242A
:1044B0009E080EFB0C0E0CEB8C03B440DEF8785D0E
:1044C0000CEB4303B6463344EE6800293FD0344337
:1044D00000EB83067167C6F88420EC60EFF311856A
:1044E000502383F312882C2202FB0C010B6F4BB379
:1044F0001A1DC1F89430214B0CEB8C01204C0CEBB5
:10450000410189000C4410310B4453F8041F09B1D8
:1045100011600A1DA342F8D10023EDB2136085F3A8
:1045200011882C2303FB0C03D3F89430C3B14C2324
:1045300003FB0C03D3F8782DD36843F00103D36059
:1045400070BD70470D4B02FB0C322432D4E726EAD3
:104550000404EC6000EB83046167C4F88420BDE7C9
:104560004C2303FB0C00D0F8782DD36823F0010313
:10457000D36070BDE0980A08A01C0024101D002420
:10458000301D002403689B0AA3F58013522B00D929
:1045900070470E4AD35C0D2BFAD84FF04C0C10B478
:1045A0000B4C42790CFB03400223D0F8780DDA4023
:1045B0009340C26829B922EA03035DF8044BC36043
:1045C000704713435DF8044BC3607047E0980A08D6
:1045D000A01C002403689B0AA3F58013522B10D85B
:1045E000084AD25C0D2A0CD84079022306494FF0C4
:1045F0004C0CD8400CFB02128340D2F8782DDB43E0
:1046000013617047E0980A08A01C00240149024881
:10461000FCF7C0BA101D0024000001400149024807
:10462000FCF7B8BA101D00240000014002494FF009
:104630008040FCF7AFBA00BF3C1D0024014902488E
:10464000FCF7A8BA681D0024000400400149024894
:10465000FCF7A0BA941D002400080040014902485C
:10466000FCF798BAC01D0024000C0040F8B5164DA8
:10467000164E2A69EB681A404FF00040B2FA82F3F6
:10468000EAB120FA03F3012A6FEA030302EA030105
:104690002B610A46F2D1D6F874718FB1013F002325
:1046A000BFB2C6F87431D6F8704134B123682046E1
:1046B000394698476468002CF8D10022DCE7F8BD41
:1046C000EF6ABFB2EFE700BF00100040A01C00245B
:1046D00001490248FCF75EBA441E00240004014070
:1046E00010B5064C064804F5D271FCF753FA04F5F0
:1046F000FE710448BDE81040FCF74CBAA01C002431
:1047000000040140001C004001490248FCF742BA85
:10471000701E00240018004001490248FCF73ABA14
:10472000C81E00240020004001490248FCF732BAAC
:10473000F41E00240040014001490248FCF72ABA57
:10474000201F00240044014001490248FCF722BA1E
:104750004C1F0024004801402DE9F0414FF4257220
:104760008EB00021744864F045FD744B744D4FF0D9
:104770000008D3F8F02040F27D27A5F55B7605F61A
:10478000F41442F00102C3F8F020D3F8F02002F054
:1047900001020092009AD3F8E82042F00102C3F827
:1047A000E820D3F8E82002F001020192019AD3F840
:1047B000E82042F00202C3F8E820D3F8E82002F033
:1047C00002020292029AD3F8E82042F00402C3F8EF
:1047D000E820D3F8E82002F004020392039AD3F809
:1047E000E82042F00802C3F8E820D3F8E82002F0FD
:1047F00008020492049AD3F8E82042F01002C3F8A9
:10480000E820D3F8E82002F010020592059AD3F8C8
:10481000E82042F02002C3F8E820D3F8E82002F0B4
:1048200020020692069AD3F8F02042F00202C3F862
:10483000F020D3F8F02002F002020792079AD3F892
:10484000E82042F04002C3F8E820D3F8E82002F064
:1048500040020892089AD3F8E82042F08002C3F898
:10486000E820D3F8E82002F080020992099AD3F8F0
:10487000E82042F48072C3F8E820D3F8E82002F47C
:1048800080720A920A9AD3F8F02042F48032C3F878
:10489000F020D3F8F02002F480320B920B9AD3F878
:1048A000F02042F40032C3F8F020D3F8F02002F4F4
:1048B00000320C920C9AD3F8F02042F48022C3F814
:1048C000F020D3F8F03003F480230D930D9B55F8BE
:1048D0002810002302E00133112B29D054F8332093
:1048E0009142F8D106EBC303B3F8640D08F1070851
:1048F0005AF08CFEB845EAD14FF0000840F27D270F
:1049000055F82810002302E00133112B12D054F87F
:1049100033209142F8D106EBC303B3F8640D08F1DC
:1049200007085AF073FEB845EAD10EB0BDE8F08131
:104930000020DBE70020F2E7101D002400440258AD
:104940004C9C0A08800AA0F5801052280DD8074B0D
:104950001A5C0D2A09D8064B4C2101FB0233D3F80F
:10496000782D136843F0010313607047E0980A083C
:10497000A01C002410B590F83DE0BEF1020F76D0E7
:10498000144690F83D208446012A02D1022280F884
:104990003D200C2921D8DFE801F00720202022202B
:1049A00020203A2020205200DCF824003449DCF892
:1049B0000020C1633349C16490F8341001290CD040
:1049C000012180F8341090F83510012952D00022CE
:1049D0004FF4006380F834204365002010BDDCF8FC
:1049E00028002749DCF80020C1632649C16490F8FB
:1049F00034100129F1D0012180F8341090F83510DD
:104A00000129E4D13832214652F0ECFBE5E7DCF82D
:104A10002C001B49DCF80020C1631A49C16490F8DE
:104A200034100129D9D0012180F8341090F83510C4
:104A30000129CCD13C32214652F0D4FBCDE7DCF841
:104A400030000F49DCF80020C1630E49C16490F8C2
:104A500034100129C1D0012180F8341090F83510AC
:104A60000129B4D14032214652F0BCFBB5E75FFAD0
:104A70008EF010BD3432214652F0B4FBADE700BFDA
:104A8000294C0908D14B09081F4B984210B50ED08C
:104A900003F5806398420AD01C4A03F5804398428C
:104AA00018BF904203D003F5806398421BD153F0A6
:104AB0005DFB174B1749DC69DA69C4F3022CC2F3BA
:104AC000022201EB0C0393F85C3203F01F03D84081
:104AD0000F4B11491B69C3F3C03342EAC303CB5CDC
:104AE00003FB00F010BD53F041FB094B0949DC69A1
:104AF000DA69C4F30214C2F302120B1993F85C32A0
:104B000003F01F03D840E3E70000014000400140EC
:104B100000440258E0980A08941F0B082DE9F04F52
:104B2000002393B0AC4C0193AC4BAD4FA3F6E856C9
:104B3000AA4D4FF00009AB4BD5F800A093F8062121
:104B40004FEA9A23A3F58013522B00F2CE80F35C38
:104B50000D2B00F2CA80012A17F903B000F00E8174
:104B6000022A02D1BBF1080F3BD14FF000084146A9
:104B700058460FF095F90FF01BFA90F800C0BCF101
:104B8000000F18BFBCF1540F14BF4FF0010C4FF0D1
:104B9000000C40F0E78008F104081FFA88F8B8F12B
:104BA000100FE4D1019B002B00F0AA808A4A0AE092
:104BB000F35C0D2B0ED8FB565B450ED002F58672CA
:104BC000944200F0998091680B689B0AA3F58013CA
:104BD000522BEDD900235B45F0D14B79697999428D
:104BE000ECD109F101091C35B9F1080FA3D1019BE2
:104BF00004F586740133042B019399D17A4A4FF05E
:104C0000010B92F8F83502F5876901330493049B90
:104C10005B4567D0734B99F81020D9F80C6093F876
:104C20001A310192002E5DD06F4AD6F800A0556867
:104C30006E48B288002D504402924FEA902040F313
:104C4000AC80654A002405E0013402F58672AC426E
:104C500000F0A08011688142F6D15F4B4FF486725C
:104C6000029D02FB0434019B0322C9F80C6089F801
:104C70001030029BC9F81840B3FA83F7C7F11F033D
:104C80005800C9F80430B27186F807B002FA00F68D
:104C9000A16C0122D4F854C0314302FA00F002FAA8
:104CA00003F3A164216D0143D4F8AC0021654E49A2
:104CB0000E7899B2002E00F04D8143EA0C03636533
:104CC000CAF81850FBF7EEF90BF1010B2046FBF781
:104CD000BDF909F1200940F20113BBF1090F29F8D0
:104CE000043C94D113B0BDE8F08F013A012A7FF65D
:104CF00078AF4FF0000B38E7BCF1000F7FF471AFD5
:104D0000A86800223A4904E001320C31102A00F070
:104D100086834B689842F7D152B250466979FCF7C6
:104D2000CDFB344A4068002351680133884216D0D5
:104D3000102B02F12402F7D14FF0FF3303EBC30332
:104D40002D4A02EB830393F8E030002B7FF449AF48
:104D5000C9EBC909214B03EB8903A36047E7DBB229
:104D6000013BEBE7019B002B7FF420AF09F1010928
:104D70001C35B9F1080F7FF4DEAE38E7BBF1010F47
:104D80003FF4F3AE09F101091C35B9F1080F7FF4C6
:104D9000D2AE2CE7042C00F049824FF48671124AFF
:104DA00001FB052211690591002900F00483906040
:104DB00001304FF054019C46C4B20D4882F81011E6
:104DC00082F811416A1C08494A60059A116897687F
:104DD00003915179002216E00C000020C8A60A08B1
:104DE000A81F0B08982D0024040000200000FEA737
:104DF00004000024C40000240000002401320C3010
:104E0000102A00F00C8343689F42F7D152B20398F6
:104E1000CDF818C0FCF752FB944B4FF48672DFF8C4
:104E20007C8202FB05310022069B0132D0E9017031
:104E3000C1E9077041464868874208D0102A01F14D
:104E400024013FF44FAF486801328742F6D1D2B215
:104E50008749013A02EBC20201EB820292F8E010AC
:104E6000089100297FF43EAF4FF4867182F8E1404B
:104E70000793542401FB05F37E4882F8E0409A1022
:104E80007D49069300FB02F201F560747748C2EB9E
:104E9000C20C02EBC202184401EB4C1104EB4212AB
:104EA000C0F80CA0C0F8B410C0F8FC203322C0F841
:104EB000B8208C22C0F80021704A0398D418FFF75C
:104EC000E3FD079B062B00F0B881072B6C496D4B67
:104ED0006D4A18BF1A466D4B18BF0B464FF48671CA
:104EE000DDF80CA0B0FBF3F3B0FBF2F2013B5F483E
:104EF000013A01FB05019BB2A1F8BC20A1F8743076
:104F00002366069B03F1580100F10803504619443B
:104F10000023A4F858306366E3655DF0FFFDDAF81E
:104F2000003043F08003CAF80030059B5B791A46D5
:104F300007930C2A1CD8DFE812F002021B001B00AA
:104F40001B00DC011B001B001B00BA011B001B0027
:104F50001B009501C7F12F072D0402FA07F3324613
:104F600043EA0C036365CAF81850FBF79BF8ABE6FD
:104F70003E4A4FF4867303984FF0000A03FB052363
:104F80000222CDF830A059690368099123F001038A
:104F9000CDF83CA0CDF844A0036060230A934FF401
:104FA0008073109301230B930A23CDE90D320AAAD3
:104FB0005DF036FC0999B1F5807F00F0278240F260
:104FC0003F81B1F5805F00F00D82B1F5803F00F0C8
:104FD0000382B1F5806F15BF4FF4006308234FF0D3
:104FE0003C0A4FF0040A039A183252F80A100B4395
:104FF00042F80A30059B1879002840F0CA81039ACC
:10500000136843F0010313600023D8F80420013330
:10501000974200F0BA81102B08F12408F5D14FF027
:10502000FF33134A03EBC30302EB8303D3F8C4003B
:10503000174B984214BFA120A0205AF0E7FA079A14
:105040000C2A00F2A081134B03EB4203B3F8C87E95
:105050004FF48673054A104803FB0523DDF80CC0A6
:1050600000F532611F83002321E000BF040000200F
:10507000000000246B4CA407C04C01240C0000204D
:10508000D0DD0600449508001055220040771B0033
:1050900000000240E0980A08FC100020C400002430
:1050A000944500F09D810133042B00F0BB8151F841
:1050B0003320002AF4D1D0F81C2B0132C0F81C2B6D
:1050C00000EBC300039ADB00C0F8202B19440898BA
:1050D00023469022B1F804C047EA0C078F800027CE
:1050E000C349FCF75BFA4FF48673C24A40214FF480
:1050F000403CC14803FB052A4FF48052DAF81C50AB
:105100002B6843F010032B602B6843F014032B60D3
:10511000C4E91F77C4E92777C4E92977DAF8203092
:10512000A167E9B2C4F89430079310394FF4806353
:10513000C4F898C0A0FB01014FF4804CC4F884303F
:10514000DAF8B8000909069BC4F8900025F0FF00C2
:10515000DAF80C80C4F8882008F118020591039051
:1051600008F11008226703F17002A44B1A44DAF820
:10517000B430C4F88CC063675DF048FED5F800C059
:10518000069BC4F820C0D5F814C003F1B8029B4BAD
:10519000C4F824C0D5F804C01A44079BC4F828C03A
:1051A000D5F808C00599C4F82CC0D5F80CC0C4F8CF
:1051B000DC304FF48063C4F8C870C4F8CC304FF4CE
:1051C0000033C4F830C0C4F8E0300398C4E9307745
:1051D000C4E93977C4E93B774FF40067DAF8003166
:1051E000C4F8B880C4F8D0704FF48047C4F8D83001
:1051F000DAF8FC30C4F8D470C4F8BC305DF006FEB8
:105200002B68D6F800A063636B69A3636B68E363E4
:10521000AB682364EB6863642B6843F010032B6076
:105220002B6843F014032B60B5881CE50323744AF4
:1052300082F81B3113B0BDE8F08F724A724B4DE615
:10524000102900F0E98000F2BD80012900F0E28021
:10525000042915BF4FF4006308234FF03C0A4FF0B8
:10526000000AC0E603984FF4867262494FF0020AC2
:10527000036802FB05124FF4805123F001035161D2
:105280000AAA036000230C930F93119360230A93DF
:105290004FF48073109301230B930A23CDE90D3A49
:1052A0005DF0BEFA4FF0040A4FF400639BE60398EA
:1052B0004FF486724F494FF0020C03684FF0040A16
:1052C00002FB05124FF4807123F00103516160224B
:1052D0000360002310910C930F9311930123CDE9E8
:1052E0000A230A230AAACDE90D3C5DF099FA0823A6
:1052F00079E603984FF486723E494FF0000A03683E
:105300004FF0020E02FB0512102123F00103CDF82D
:1053100030A051610AAA03606023CDF83CA00A9333
:105320004FF48073CDF844A0109301230B930A230C
:10533000CDE90D3E5DF074FA4FF4006353E6039837
:105340004FF486722B494FF0000A03684FF0020EAB
:1053500002FB0512012123F00103CDF830A05161B9
:105360000AAA036060230B910A934FF48073CDF86F
:105370003CA010930A23CDF844A0CDE90D3E5DF08A
:105380004FFA08232FE6002762E6DBB20893013BC1
:1053900047E6FDF743FE824638B1059B0221DA79E4
:1053A000FCF776FC5423AAF80630039A536C43F4B6
:1053B0000043536423E60223114A82F81B3113B0E1
:1053C000BDE8F08F402915BF4FF4006308234FF06C
:1053D0003C0A4FF0000A06E608234FF03C0A02E6BA
:1053E000DB0073E64FF400634FF0040AFBE500BFF7
:1053F0000100000004000020ABAAAAAA0C000020B3
:10540000982D0024882A1100A0BB0D0008234FF01E
:10541000040AE8E50823E6E54FF40063E3E500232A
:105420005B68FFDE00239B88FFDE00BF08B9002019
:1054300070472DE9F04F00228FB02F2104460EF067
:105440000DFE0646C8B190F80590A74FD0F800A011
:10545000A7F84C94FCF75AF878B1D0E901530193BE
:105460005DB1DFF8C08200234246414648680133FF
:105470002431854205D0102BF8D100200FB0BDE8B3
:10548000F08FDBB29949013B03EBC30301EB8301CE
:105490009B0091F8E0B0BBF1000FEED11A442F232E
:1054A000C7F800A450469383FFF7EEFA904B98425A
:1054B00080F0F980012303935B4650460293FFF787
:1054C000E3FA029B8B490022C7F80434039BC7F818
:1054D0001024C7F80824B0FBF3F31B0A8648A1FB8D
:1054E0000331864B0A090909A0FB0202C7F80C1414
:1054F0005208A3F81E215200A3F81C2197F83D245E
:1055000002F0FF01002A00F0DC80022250467C49B4
:1055100087F83D2453F000F90122204687F84824FB
:1055200087F83E2487F83F2487F8402487F84124F1
:1055300087F8422487F8432487F8442487F84524D1
:1055400087F8462487F8472487F83D24FDF766FD51
:105550006A4BC3F8200130B12F21C1804E21F2796E
:10556000FCF796FB654B019A00214FF48064B9F17A
:105570000C0FC3F83011C3F84011C3F84811C3E948
:105580004952604AC3E95411D2F8D80040F00100F2
:10559000C2F8D800D2F8D80000F0010005900598B4
:1055A000D2F8D80040F00200C2F8D800D2F8D820D3
:1055B00002F002020692069A4FF04002C3F82C2134
:1055C0004FF48052C3E94D424FF48042C3F83C216E
:1055D0004FF40032C3F844214FF00302C3F84C21CA
:1055E00072D8494A02EB4902B2F8E44EA2460834A6
:1055F0004649474AC3F85C1107EB8403C3F800240B
:1056000043460022596824338D4260D00132102A6B
:10561000F8D14FF0FF33354A03EBC30302EB8303AA
:10562000D3F8C4003B4B984214BFA120A02059F0EE
:10563000EDFF0023D8F80420013308F12408954237
:1056400049D0102BF6D107EB840758465346602209
:105650003149FBF7A3FFD7F800044EF0F1FB002817
:105660007FF40BAFB47960210C904A466300079138
:105670000D9007A903F0020308900B900993E30033
:10568000224803F008030A9359F062F900287FF4D6
:10569000F4AEA30749461D4820D553F045F9B0FAAA
:1056A00080F04009EAE65046FFF7EEF91B4B1C4A32
:1056B0000344A2FB03239B0D013B9BB25A1C0392A4
:1056C000FBE687F83C1420E78A460C468FE7531C1C
:1056D000DBB2013B9FE75FFA83FBB4E752F090FF38
:1056E000B0FA80F04009C9E6A01C002400000024A4
:1056F000006CDC02598B4F01ABAAAAAA982D00249A
:10570000A420002400440258E0980A08A0200024A5
:10571000BC2E002400000240D502000000366E01BD
:10572000819F5E16C4000024830AA3F58013522BC8
:1057300000D970472DE9F04115460F4AD65C0D2E71
:1057400017D80E4C4FF04C08013908FB064789B2B8
:10575000C7F8841DFFF798F907F67C51B0FBF5F206
:10576000013AD7F8780DC7F87C2DBDE8F04152F02A
:10577000D3BFBDE8F08100BFE0980A08A01C002458
:10578000830AA3F58013522B6ED82DE9F04390467F
:10579000714A85B0D65C0D2E63D84C256F4F0446F8
:1057A00006FB05F507EB0509D9F8783D834258D08B
:1057B0000139C9F8780D083589B2C9F8841DFFF799
:1057C00063F907F678510023B0FBF8F00D44013877
:1057D000C9F8803DC9F87C0DC5E9023399F8B53D9B
:1057E00003F0FF02002B40D04C25022305FB0611DD
:1057F00005FB06750431D5F8788D85F8B53D404632
:1058000052F08AFF012385F8C03D85F8B63D85F842
:10581000B73D85F8B83D85F8B93D85F8BA3D85F8BE
:10582000BB3D85F8BC3D85F8BD3D85F8BE3D85F89E
:10583000BF3D85F8B53D4A4B9C4219D0B4F1804F2D
