:020000040800F2
:10000000F0FF012075C00408DDC0040805A0010848
:10001000DDC00408DDC00408DDC0040800000000E5
:10002000000000000000000000000000DDC0040827
:10003000DDC0040800000000DDC0040809AD0008B0
:10004000DDC00408DDC00408DDC00408DDC004080C
:10005000DDC00408DDC00408757E00087D7E000850
:10006000857E00088D7E0008957E0008697C00086A
:100070007D7C0008917C0008A57C0008B97C000804
:10008000CD7C0008E17C0008DDC00408DDC0040868
:1000900081440408DDC00408DDC004089D7E00081A
:1000A00099970008AD960008A99700089D9600084A
:1000B000D5960008E5960008F5960008517B0008E3
:1000C0004D7B0008597B0008557B0008DDC0040803
:1000D000DDC00408E5390408F1390408FD390408D5
:1000E000A57E0008DDC00408DDC00408DDC00408EA
:1000F00089970008DDC0040879970008DDC004086E
:10010000DDC00408DDC0040805970008DDC0040850
:10011000093A0408153A04081597000825540408FC
:10012000097D00081D7D0008317D0008457D00081F
:10013000597D0008DDC00408DDC00408DDC00408E6
:10014000DDC00408DDC00408DDC00408DDC004080B
:10015000DDC00408DDC00408DDC00408DDC00408FB
:10016000DDC00408DDC00408DDC00408DDC00408EB
:10017000DDC00408DDC00408DDC00408DDC00408DB
:10018000B9970008DDC00408697B0008657B00089A
:10019000DDC0040800000000DDC00408DDC0040864
:1001A000DDC00408DDC00408DDC00408213A0408ED
:1001B000617B00085D7B0008DDC00408DDC0040829
:1001C000F57C00086D7D0008817D0008957D0008A4
:0801D000DDC00408DDC00408D5
:0801D80018BD04000100000045
:10600000074BD0F8CC105B68D0F8D8205B1A9A42C6
:10601000B8BFC0F8D830012380F8043100207047A1
:10602000001000E0027A0B4B0168134410B413F81F
:10603000013CCC5824F00104CC50CA181368DB078B
:10604000FCD4027D5DF8044B0223934043F00C0323
:106050004B6070471C5D05084368C26C10B49A61C0
:10606000EFF31182502383F312884168046C0B68AC
:1060700023EA0403846C2343D2B20B6082F31188B9
:10608000436981681A68096822F001021A60D0E940
:1060900008421C605A60D0E90A429C60DA60B0F89D
:1060A0006420CA6200235DF8044B0377704700BF89
:1060B000002A4FEA014C30B503460ABFE6468E4639
:1060C0008C4600F1C005002419689A6841EA0C0169
:1060D00042EA0E029A60C3E900140C33AB42F3D1DA
:1060E000D0F8C030C0F8C44043EA0E03C0F8C03056
:1060F000C0F8C84030BD00BFC3695969B3F810C0CB
:106100000A6830B49C6822F0010224680A60E268E0
:1061100022EA0C02E260046890F814C020680822A9
:1061200002FA0CF202403AD123480578022000FA24
:106130000CF06060002D30D0187F012830D0D3F8EB
:10614000D8200132C3F8D820EFF31181502282F316
:10615000128858681C6C026822EA04025C6C2243B4
:10616000C9B2026081F31188D3E90C405A69996879
:10617000096814605060D3E90E409460D060B3F8B1
:106180009C00C86210680124204310601C7783F8CB
:10619000D540CA681B8A1343CB6030BC7047FEE70A
:1061A00083F8D520D3F8DC000A68013022F0010220
:1061B000C3F8DC000A60F0E79818002010B40C4C1B
:1061C0006368002B11DD002004F1080C0146DCF8A7
:1061D000943003F1C00259600C339342FBD16368E1
:1061E000013083420CF1E40CF1DC5DF8044B7047A4
:1061F00098180020704700BF024B03EB401393F840
:10620000B503704798180020D0E90920131A5842A6
:106210005841704790F84F3830B53BB990F84D1859
:1062200090F84E380124DAB2914200D830BDB0F86F
:10623000565804FA03F22A43A0F856280133F2E72D
:106240000379024613F0010006D0D2E90731D26883
:106250005B1A013A03EA0200704710B5037913F0A4
:10626000010304460ED0FFF7EBFF034650B1226A4C
:106270006369E1689B5C0132B2FBF1F001FB102223
:10628000DBB22262184610BD03799B070AD5436A28
:106290008269D154436A02690133B3FBF2F102FB14
:1062A00011334362704770470171704703790146AB
:1062B00013F0020007D00B69D1E90921013B521A02
:1062C0001A40D2B2981A70473D4BD3F804358BB9B7
:1062D0003C4A4FF4A87002232A214010C2F8A804B7
:1062E000C2F89834C2F89C34C2F8A034C2F8A4149E
:1062F000012070473449334AA1FB03139B0C10B4AF
:10630000A3F108010324C2F89844132927D8DFE831
:1063100001F0462626262626262646262626262638
:1063200026264626310A294B294903EB40031B8ABE
:106330005B00A3F5AB7381FB0301DB17C3EBA10388
:106340005B00263303EBC30003210224B0F50C7F6E
:10635000C2F89C44C2F8A014C2F8A43403DB0020A5
:106360005DF8044B70474010C2F8A8045DF8044B78
:1063700001207047154B174903EB40031B895B0055
:10638000A3F5A97381FB0301DB17C3EBE1035B00FA
:106390001A3303EB430003EB80000221D5E70B4CDB
:1063A00034F810004000C3F3C401B0F5A87344BF33
:1063B0006FF4A073C3181B115B002A33D800C4E725
:1063C000002000409818002083DE1B43ECDF040807
:1063D000398EE3384FECC44E10B584464FEA810E37
:1063E000102312F4004F14BF0E2407245200013B67
:1063F000CCF8004092B2F444F3D100EB81128C014E
:10640000035142F82130122010BD00BF10B5844660
:106410004FEA810E0424130B03EB430318331201DC
:10642000013CCCF8003092B2F444F4D100EB0113FB
:106430000A01845043F82140062010BD704700BF78
:10644000704700BF034B00EB400003EBC00393F821
:10645000BD04704798180020064B93F86C258242C3
:1064600083BF00EB400003EBC003D3F8C00400205F
:10647000704700BF981800200B4890F86D1589B13F
:1064800001EB4101002310B4490000F2AC401C466E
:1064900050F82320063302B114608B42F8D15DF826
:1064A000044B7047704700BF981800200B4890F8C5
:1064B0006D1589B101EB4101002310B4490000F2D0
:1064C000AC401C4650F82320063302B114608B42C6
:1064D000F8D15DF8044B7047704700BF9818002052
:1064E000204B1B78002B3CD12DE9F0411E4C94F839
:1064F0006D25A2B31D4E04F2AC4250274FF02C0E76
:106500001D4607E094F86D1552F8180B01338B42C5
:10651000056024DA117C0029F4D05168880AA0F5BE
:10652000801006EB000854284FF0FE0C98BF98F836
:1065300018C0EFF3118087F31288D1F824800EFB86
:106540000C4C08F10108CCF89885D1F814C04CF037
:10655000010CC0B2C1F814C080F31188D2E7BDE8C5
:10656000F08170470000002098180020ECDF04083C
:1065700000EE100AB8EE400A704700BFBCEEC00A39
:1065800010EE103A98B2704707280AD8064B4FF41D
:106590009A7202FB0033B3F8AC07B0FA80F04009FE
:1065A00070470020704700BF98180020072807D8C0
:1065B000044B4FF49A7202FB0033012283F8AE279A
:1065C000704700BF98180020072808D8044B03EB39
:1065D000401393F8B42312B1012283F89A23704731
:1065E00098180020072808D8054B03EB4013B3F890
:1065F0009803B0FA80F0400970470020704700BF50
:1066000098180020054B93F86C25824286BF03EB57
:106610004013D3F8A4030020704700BF981800204F
:10662000012343770020704708B503468269006B59
:10663000D96A02449A6101B18847002008BD00BFB1
:10664000436A1B681B6A5B685B78024613F00100B3
:1066500008BF5077704700BFC2628161704700BFBA
:10666000704700BF043070470B4B93F85820596DAA
:106670000244D2B283F8582093F8582001441206FD
:10668000596505D593F8582082F0800283F8582088
:10669000024B01225A707047902900200000002010
:1066A0002DE9F047144FFD6DED0A1FD00026B146CD
:1066B00007F1940874193B6E1048D3F828A0C7F866
:1066C0008C9004EBD474641010234246E102D0474E
:1066D0000F280BDD0A4B03F1100153F8042B013294
:1066E00007D18B42F9D12546B542E3DCE802BDE88B
:1066F000F087661CF8E700BF90290020F0290020F1
:10670000242A0020194BD3F8A410D3F8A8208A1A01
:10671000322A05DCD3F8BC208A1A002A11DC704723
:10672000D3F8AC1049B193F8B8208888096802F012
:106730000102120100FA02F28A610022C3F8BC20B1
:106740007047D3F8AC206AB11068928810B44469DD
:10675000224218BF120432315DF8044B8261C3F843
:10676000BC1070473231C3F8BC107047902900202C
:10677000074AD2F8AC304BB192F8B8209988186823
:1067800002F00102130101FA03F383610020704754
:1067900090290020044B4FF40070D3F8C8301080CB
:1067A00000200B60704700BF902900200020704738
:1067B000012070470120704700207047164AD0F82A
:1067C000C8305268D0F8C01010B5044673B1501AE2
:1067D00083420BDC94F8B830C4F8C020012B10D0F1
:1067E000D4F8BC300133C4F8BC3010BDD4F8CC3080
:1067F000C4F8C0200B44C4F8C43094F8B830012B5E
:10680000EED104F1D001201D3CF028FFD4F8BC30BB
:106810000133C4F8BC3010BD001000E0CB070DD42C
:1068200070B590F82830C468012B8CB007D0B4F153
:10683000807F01D9012303770CB070BD70471B4ADC
:106840001B4BD2F8F8505B68466AB5EB530F4FEA22
:10685000530228D20721022352085B0095429BB2C3
:1068600001D20139F8D1B4F1807FB380E4D901229B
:1068700001A9002302770291B72402A93046CDE98D
:1068800003328DF814208DF82820CDE90633CDE9A8
:1068900008338DF804400B933CF0E0FE3268136A35
:1068A000002BFCD1C8E70223DDE700BF90290020C0
:1068B0000000002030B590F82830012B8BB0044642
:1068C00008D0407F10B901200BB030BD00236377A2
:1068D0000BB030BD456A2B681A7B2ABB637F002B47
:1068E000F1D01449009114490191022100230122A1
:1068F0000291284669468DF80C208DF82020CDE9BC
:106900000433CDE9063309933CF0A8FE2A68136AE4
:10691000002BFCD1094B93F8FD30D84303F0010361
:1069200000F001006377D3E71B6A002BD6D000206C
:10693000CAE700BF080000208C2A00209029002010
:1069400030B504468BB094F82830012B08D0637F13
:106950000BB10023637701200BB030BD1B6A23B15C
:10696000656A2B681A7B002AF8D1637F002BF2D06E
:106970001049009110490191022100230122029146
:10698000284669468DF80C208DF82020CDE9043387
:10699000CDE9063309933CF061FE2A68136A002BA7
:1069A000FCD1064B93F8FD3003F00102DB07627760
:1069B000D1D5C8E7080000208C2A002090290020AB
:1069C00030B5204A204B95B0044620480493CDE9C9
:1069D00000200023151D083ACDE90A23CDE90E3326
:1069E0001B480990626A207F0595069310931393C4
:1069F0001193012312688DF80C30022507938DF84E
:106A000020308DF834308DF84830031D02950C93FA
:106A1000136A002BFCD198B10E4B0A0E5A730E3339
:106A20000A0A080C5A7099701870606A69463CF03E
:106A300015FE636A1A68136A002BFCD115B030BDCD
:106A4000054BEDE71400002041660008902A002065
:106A500021660008000000200D00002010B504464B
:106A600094B050220749684647F072F8606A694658
:106A70003CF0F4FD636A1A68136A002BFCD114B071
:106A800010BD00BF5CE00408F8B50546406A006828
:106A9000046A002CFCD12C7FA869002C36D0244C31
:106AA000060E6677052704F11E06B0704FEA104CFB
:106AB000000A86F800C0707008686765166820666E
:106AC000012B4FF00000A6662E63A06723D0022B97
:106AD0001BD1536820674A6862671E44154A84F8D0
:106AE0006C000121E3672E6384F88010C4F88420D1
:106AF000114B6A7F686AA3F11401002A08BF194686
:106B00003CF0ACFDEB6A6BB1286BF8BD0B4E042773
:106B1000A6F11D04C9E7074A84F86C30C4E91C20BB
:106B2000E067E5E76B6A1A68136A002BFCD1EBE7B4
:106B30000000002029660008380000201D00002009
:106B400000B583B081610192049A0093C26201236F
:106B50006A4601A9FFF798FF03B05DF804FB00BF88
:106B6000F0B50746406A066895B01D46346A002CA9
:106B7000FCD1CDE90944CDE90E44CDE91044069499
:106B80008DF820401394304C0B9204F1A403009331
:106B90002E4B01930223029301232D4A8DF80C30D2
:106BA0008DF834308DF848303B7F049204F19C021C
:106BB00005921A1D0C950792002B3ED00B0E84F8FF
:106BC0009D3004F19E03234E6268D6F8F8C0997098
:106BD000080C090A59701870BCEB520F786A4FEA1A
:106BE00052012DD207230222490852008C4592B24D
:106BF00001D2013BF8D17B7F8280E3B169463CF052
:106C00002DFD786A03681A6A002AFCD16268D6F8FA
:106C10000831B3EB520F4FEA520113D2072402227C
:106C2000490852008B4292B201D2013CF8D18280D5
:106C3000284615B0F0BD05A9E1E704F19D03C2E7C0
:106C40000222D8E70222F2E700000020942A002066
:106C50004166000890290020F0B5836993F8C420AC
:106C6000012A8BB0054633D0023A012A2DD893F879
:106C70003421D96F234C62F07F030B708669D6F8FC
:106C800080305F1C0FCCEC46ACE80F00F36FCDE911
:106C900000370FCCACE80F0094E803008CE8030049
:106CA000694606F110003CF0D9FCA9690A69136A2B
:106CB000002BFCD1D1F880305A8852BAEA819A88E8
:106CC00052BA2A82DB885BBA6B8201200BB0F0BD1E
:106CD00093F8342193F83701D3F88010131A5B101E
:106CE0000133DBB201EB430231F813305BBAEB81C5
:106CF00053885BBA2B82938801205BBA6B820BB0FE
:106D0000F0BD00BFACE00408F0B590F8C430D0F896
:106D10008060012B8BB0044648D032D9023B012B56
:106D20002CD890F83531C26F4F4D63F07F0313704C
:106D3000D0F880305F1C0FCDEC46ACE80F00E36F5D
:106D4000CDE900370FCDACE80F0095E803008CE8E3
:106D50000300694604F110003CF080FC2269136ACC
:106D6000002BFCD173885BBAA4F8B030B3885BBA4F
:106D7000A4F8B230F3885BBAA4F8B43001200BB0A9
:106D8000F0BDC36F4FF0FF321A605A609A60DA604C
:106D9000D0F8C8300522B3F57A7FC0F8D82038D8AB
:106DA000032380F8C43001200BB0F0BD90F83711F8
:106DB00090F8353190F83621D0ED2E6AD0ED2F7A4B
:106DC0005B1A5B100133DBB2521A36F8131006EB74
:106DD000430349BAA0F8B010598849BAA0F8B210D4
:106DE0009B8852100132D2B25BBAA0F8B43036F8A8
:106DF0001230DBBA07EE103AB8EEC77AE7EE267A21
:106E0000FDEEE77A17EE903AA0F8B63001200BB00D
:106E1000F0BD03691A7B1AB35B690BB390F8783045
:106E2000F3B190F83731C26FC4F8840063F07F0388
:106E3000137090F8371190F83531D0F880200B4856
:106E4000C4F8EC005B1A07330121C4F8E430E36FA7
:106E500084F8E8100A44C4E9373284F8C4108DE796
:106E6000022384F8C43089E7ACE00408016000081C
:106E7000F8B50C4B1D685A69154005405D617DB140
:106E8000094F0126B5FA85F4C4F11F0407EB84030A
:106E900006FA04F4D3F80C0103689847A543F1D12E
:106EA000F8BD00BF00040140902900202DE9F843FF
:106EB0000269C36812EA030828D005460E464FF05F
:106EC0000047B8FA88F327FA03F2D2431B3B2A6142
:106ED00008EA0208042B16D8DFE803F03B30251A35
:106EE0000300B36A002B3FD003F1FF3900231FFAE0
:106EF00089F9B362746A34B12368204649469847D9
:106F00006468002CF8D1B8F1000FDAD1BDE8F8833D
:106F100070680028F7D0696B036889B29847B8F1A8
:106F2000000FCED1F2E7B0680028ECD0A96B03685F
:106F300089B29847B8F1000FC3D1E7E7F06800289D
:106F4000E1D0E96B036889B29847B8F1000FB8D176
:106F5000DCE730690028D6D0296C036889B29847ED
:106F6000B8F1000FADD1D1E7EB6A1FFA83F9C1E7A1
:106F70002DE9F0470768D7E90415D7F80480E861E0
:106F80000A7D0E682C68022303FA02F242F00C021A
:106F900072602A7D934043F00C036360097A194BB9
:106FA000BA69581810F8019C56F809C02CF0010C69
:106FB00046F809C095F808A05344304613F8015C20
:106FC000635923F001036351635943F00203635192
:106FD00042F0AEFBFA695146204642F0A9FB56F852
:106FE000093043F0010346F80930635943F00103C7
:106FF0006351D8F8043043F00303C8F80430BDE807
:10700000F08700BF1C5D0508F8B5314D05EB401356
:1070100093F8B43303B9F8BD2E4B93F84CE193F8D1
:107020004D2196454FEA40140CD002EB420C03EB85
:10703000CC0C9CF85061771E012F4FEA420C3AD9D4
:10704000032E33D0244B2C4403EB4010A4F89813A8
:1070500010F0AEFB2B78D4F8B023D4F89C138BB18E
:10706000D2F8943001248C4003F1C001420010F4A6
:10707000004F90B202D15A6822435A600C338B42BF
:10708000F4D1F8BDD2F89430012401F110029440FB
:1070900003F1C001420010F4004F90B202D15A68CF
:1070A00022435A600C338B42F4D1F8BD561C06F0D3
:1070B00003067645C6D0944403EBCC03034493F80F
:1070C0005D110029BED02B19012283F89A23B9E75C
:1070D0009818002090290020301C002070B5384CF2
:1070E0004FF49A7303FB004393F8BB3703B970BDA9
:1070F000344D95F84CC195F84D319C450ED003EBBD
:10710000430205EBC20292F850E10EF1FF36012E68
:107110004FEA430231D9BEF1030F29D04FF49A73DD
:1071200003FB00F0284B04441844A4F8AC1710F0FB
:107130003FFB95F8B411D5F8B031024669BB012187
:10714000D4F8DC089847D4F8D858B4F8B837D4F84D
:10715000D428B5F8B41019435368A5F8B4106FF3E8
:107160000F0303435360136843F00103136070BDC2
:107170005E1C06F003066645D0D01A4405EBC20239
:10718000024492F85D110029C8D04FF49A7303FBB2
:107190000043012283F8AE27C0E7D4F8B417D4F82F
:1071A000D8084979D0F8B00001F0FC010844042166
:1071B0009847D4F8D8388000A3F8AC0070BD00BF61
:1071C00098180020902900204420002086E700BF66
:1071D00010B5044645F01EFE81B22046BDE81040C1
:1071E00012E700BF10B5044645F014FE81B22046F8
:1071F000BDE8104072E700BF38B50B4D00EB400012
:1072000005F2AC4303EBC00393ED027AD3ED037AAE
:10721000E7EE007AC4002544B0EE670A45F0FAFDB7
:10722000D5F8AC34186038BD9818002070B5274CDC
:1072300094F84C2194F84D319A4242D194F8782731
:107240005AB302EB4201224B94F8B401C2EBC10CD9
:1072500003EBCC0CD4F8B82108B31E4D1E4C40F201
:107260000D3E00E01A68D3F8A810B3F8AC004E68E1
:107270002E4030434860086840F001000860D2F8B2
:10728000DC13214041EA0E01C2F8DC13D168B833A7
:1072900041F480716345D160E4D170BD1A68116812
:1072A0009C8821F080011160D4625062B3F8B41060
:1072B000D468B83321436345D16023F8040CEDD181
:1072C00070BD44F0ADF80028B8D170BD9029002001
:1072D000482B00200000FFFFE0E0FFFFF8B5A0F61C
:1072E00068042379DB0725D5657994F84C3805F0D7
:1072F00001073D46FBB1D4F848341A68D36A5B08ED
:10730000536294F8503823B1B4F85A380133A4F8D2
:107310005A38606C85F0010140F0B2FF012384F817
:107320004F38002384F84D3884F84E38A4F8563886
:1073300084F84C38F8BD94F84F68012E04BF94F8D7
:107340004D3884F84E382046FEF764FF4EB90123CD
:1073500084F84F3887EA0301606CBDE8F84040F0DC
:107360008FBF002384F84F383946F5E770B5094CD4
:1073700005460726013E00D170BD94F9000013F0C8
:107380001DFA031E04DBEA1861789171A278EA54B1
:107390000434EFE7D4E004082DE9F843DDF8208059
:1073A0000F4615460021202204461E4646F0F2FAFA
:1073B000B8F1000F0CD0D8F80030E3811B0C238209
:1073C000D8F80430B8F80A20E3821B0C62822383C9
:1073D000384644F0DDFDEB0619D4431EB8B107EB87
:1073E000000C01E0013B12D31CF801EDBEF12E0FA1
:1073F000F8D1C01A421E032AA8BF0322082B03F1AA
:107400000109A8BF08239046B9441A4606E0082897
:107410000246B946A8BF08224FF000084FF02033BB
:10742000394623606360204646F092FB04F1080071
:10743000154B238142464946837046F089FB611E05
:10744000E21D11F801CFACF16103192B9CBFACF127
:10745000200C81F800C09142F3D104F10A0011F828
:10746000013FA3F16102192A9CBF203B0B708142AE
:10747000F5D118232373330CA382E572099B66832D
:10748000E361BDE8F88300BF202020002DE9F04F24
:10749000DFF844B4DBF8A40085B0CBF8A800002BDB
:1074A0005ED013440C46174601F5FE7A99461DE05E
:1074B000002F62D0DBF8D430BB4200F0C480DBF890
:1074C000D030BB4200F0F680DBE93631BB424BD80E
:1074D000B94200F26E81791A20463FF007FC01376D
:1074E0004F4504F500740AF5007A39D0DBF8E03036
:1074F000BB42DDD8DBF8F050FB1A296BDA08023208
:107500008A4203F0070602D3AB6B9A420BD9294695
:10751000104602923FF0BAFB029A0546002800F09E
:107520006881CBF8F0002B79002B40F01C81D5F856
:107530002880B8F1000F00F055812B6BD21AEB6850
:1075400006EBC20203EB422220462B464FF40071A9
:107550000137C0474F4504F500740AF5007AC5D1DC
:10756000002005B0BDE8F08FB942B4D94FF40072E5
:107570000021204646F00EFAB1E74FF4007239467A
:10758000204646F007FA802384F8BE310C2384F8A5
:10759000C231DBF8D010C44ADBF8C830C4F8C611D9
:1075A0009142C4F8CA3100F30981C04AC04D82FB40
:1075B000010285FB01050A44C817C0EB6212C0EB4B
:1075C0002530BC4D84F8C10185FB0265C2EB8216F3
:1075D0008010891B013120F03F0015440843D1176A
:1075E000C1EBE5110A4484F8BF21AF4A84F8C00119
:1075F000013B934200F3EE80AC4AAD4882FB03129C
:1076000080FB03101A44D917C1EB6212C1EB203181
:10761000A84884F8C51180FB0250C2EB821589107E
:107620005B1B013321F03F0110441943D317C3EB17
:10763000E0131A4484F8C41184F8C3214AF6552390
:10764000A4F8FE314BE74FF0FF3384F8EC3184F8B7
:10765000ED3184F8EE3184F8EF31522323706370FA
:107660006123A37084F8E7314123E37084F8E631A5
:107670007223002584F8E43184F8E531DBF8E83042
:10768000C4F8E8314FF4F0722946201D46F082F923
:10769000552384F8FE316FF05503C4F8F051C4F857
:1076A000F451C4F8F85184F8FC5184F8FD5184F881
:1076B000FF3114E74FF400720021204646F06AF9CA
:1076C0007D4B03CB45F6EB03238090230222C4F8C5
:1076D0000710A3700821F823C4F803006173227413
:1076E0006375DBF8C8302273A27384F82C20DBF8B2
:1076F000D0209B1A2362DBE936239B1A63620023A6
:10770000E372E3736377A377E37784F82D3084F82B
:107710002E3084F82F3084F83130684BA361684BE9
:10772000C4F842303E232377012384F83030654A81
:10773000802384F8403084F846104AF65521A4F896
:10774000FE1103CA604BC4F84700C4F84B1003CBCA
:107750001388A4F84F309378C4F85200C4F8561038
:1077600084F85130BBE64FF400720021204646F009
:1077700011F9002E44D12B6C04F12008002B7BD092
:107780002B6B52491122CDE900662046FFF704FE1B
:107790002B6C1A6C002A7ED01B6B4D49CDE900661C
:1077A00040461122FFF7F8FD04F140084FF4E07362
:1077B0006DE0F91A20463FF099FA90E6FF2284F82E
:1077C000C1214FF6FF72A4F8BF21374A013B934213
:1077D0007FF712AFFF2384F8C5314FF6FF73A4F88B
:1077E000C3312BE741464FF40072204646F0D2F8F1
:1077F00075E6384A231F43F8042F9A45FBD16EE6FD
:10780000D5E910253301002A43D0023B002D3FF477
:1078100066AE013BAD6CF9D1A0464FF40073002D6C
:107820003FF45DAECDE9027A08EB0306A24608E01C
:107830000024CDE900C4FFF7AFFDAD6CBDB1B0458C
:1078400015D02C7929682B6B404605F11C0C1122B0
:1078500008F12008002CEBD16A792C6942F0210252
:10786000CDE900C4FFF798FDAD6C002DE7D154467B
:10787000029FDDF80CA032E6CDE900663346DBF866
:10788000CC1008222046FFF787FD4FF4F0736D6C93
:10789000C5E7013BBAE7CDE900660D4933464046EE
:1078A0001122FFF779FD7FE7FF03FB0083200882A9
:1078B0009755454181808080685C05083F00FF0046
:1078C00029940E0D745C0508805C0508605C050851
:1078D000645C0508DEADBEEF9029002030B103687E
:1078E00082881B691A4214BF01200020704700BF24
:1078F00000207047704700BF036823F00203036055
:10790000036823F004030360036823F0400303606B
:10791000036823F020030360036823F0100303606F
:10792000036823F08003036083699B0603D5C36962
:1079300043F02003C36183699A0744BF0023836235
:107940008369094ADB075CBF012383614FF0010CA7
:107950000023436081F800C04B70B2F87A3763446B
:107960009BB2A2F87A3770479029002010B42C21DE
:10797000524C00FB01F162180346D2F87C27506894
:107980000268D2060CD58269D20609D5C3692144A2
:1079900043F010035DF8044BC36101F29471ABE74F
:1079A000026891071CD58269920719D52C2202FB27
:1079B000034393F8992782B193F898276AB1D3F8D3
:1079C0009C27511CC3F89C171278D2B2826293F89C
:1079D0009827013AD2B283F898275DF8044B704794
:1079E0000268510724D4026851063ED582695206C6
:1079F0003BD52C2202FB034393F89A27002AECD0B4
:107A000093F896172E4C93F89827436823400B431E
:107A100043EA024343F0024343F4105343600368D4
:107A200023F002030360036843F004030360D4E718
:107A300082695207D7D52C2202FB034393F89A2779
:107A4000002ACAD093F89827002AC6D0426AD3F8F1
:107A5000A017D2B2481CC3F8A0070A7093F8982761
:107A6000013AD2B283F89827B7E702689106B4D5F5
:107A700082699206B1D5C26942F02002C2610268F1
:107A800022F002020260026822F004020260026830
:107A900022F040020260026822F0200202600268C6
:107AA00022F01002026002682C2101FB034322F045
:107AB00080020021026083F895178EE7902900204C
:107AC000008000FC10B41F4C2C2303FB0043014634
:107AD000D3F87C275068026812062AD58269D2053D
:107AE00006D5C26942F48072C261012283F89427EC
:107AF00083699A0509D5C2692C2342F4007203FBFD
:107B00000143C261012283F8942783695B0509D58B
:107B1000C2692C2342F4806203FB0143C26101224B
:107B200083F894272C2303FB01F1631893F894370F
:107B300013B95DF8044B7047034B5DF8044B1944CF
:107B4000DAE600BF90290020243100200020B9E7A8
:107B500000200BE70120B5E7012007E70220B1E78D
:107B6000022003E70320ADE70320FFE610B103681E
:107B700082889A61704700BF10B1036882889A6258
:107B8000704700BFD3B20F2B21D8124B00B503F1C1
:107B90006F0E02E00333734516D093F800C084459E
:107BA000F8D193F801C08C45F4D10B489B7802EBD7
:107BB000420200EB8201A83000EB8200C1F8B03035
:107BC00081F8A8305DF804FB00205DF804FB00207C
:107BD000704700BFECE004080000002010B40C4C1B
:107BE000002304F62C0C01E0152B0CD003EB430210
:107BF00001331CF802108142F6D1144494F92E0886
:107C00005DF8044B70474FF0FF305DF8044B704750
:107C10009029002030B5124C002304F5B87C02E016
:107C200001331F2B1AD05CF833508542F8D10CEB8E
:107C3000C30EDD009EF804E08E45F1D1094802EB49
:107C400042022C4400EB820394F87511C3F8B01083
:107C5000A83000EB820083F8A81030BD002030BDB2
:107C6000ECDF0408000000200348D0F8783113B19D
:107C700000F5B47018477047000000200348D0F8A2
:107C8000A43113B100F5CA701847704700000020F6
:107C90000348D0F8D03113B100F5E07018477047B1
:107CA000000000200348D0F8FC3113B100F5F67055
:107CB00018477047000000200348D0F8283213B15D
:107CC00000F5067018477047000000200348D0F800
:107CD000543213B100F511701847704700000020AE
:107CE0000348D0F8803213B100F51C701847704774
:107CF000000000200348D0F8AC3213B100F5277023
:107D000018477047000000200348D0F8D83213B15C
:107D100000F5327018477047000000200348D0F883
:107D2000043313B100F53D70184770470000002080
:107D30000348D0F8303313B100F548701847704746
:107D4000000000200348D0F85C3313B100F55370F5
:107D500018477047000000200348D0F8883313B15B
:107D600000F55E7018477047000000200348D0F807
:107D7000B43313B100F56970184770470000002054
:107D80000348D0F8E03313B100F57470184770471A
:107D9000000000200348D0F80C3413B100F57F70C8
:107DA00018477047000000200F4B01382C2202FBBF
:107DB00000320E4BD2F868210D48996C824214BFF4
:107DC00002220122114382B09964996C0A40019207
:107DD000019A9A6C42F004029A649B6C03F00403CB
:107DE0000093009B02B0704700000020001002408A
:107DF00000000240F0B51B4C01381E462C2303FB4B
:107E00000044194BD4F8680183B0984214BFA120F4
:107E1000A02015460F463FF01FF9144B9A6C42F014
:107E200004029A649B6C94F98001C4F8787103F0A1
:107E300004030193C5F30112A909019BC4F88461ED
:107E40003BF0A0FE94F98031002B08DB580908496B
:107E500003F01F03012202FA03F341F8203003B0BC
:107E6000F0BD00BF000000200000024000100240F2
:107E700000E100E00120FEF7FBBF00BF0220FEF79B
:107E8000F7BF00BF0420FEF7F3BF00BF0820FEF7D6
:107E9000EFBF00BF1020FEF7EBBF00BF4FF47870BC
:107EA000FEF7E6BF4FF47C40FEF7E2BF70B50D462B
:107EB00082B016460446B8B1036803F138439B0A02
:107EC0000B4A134493F868023FF0C6F8C5F38103E8
:107ED000CDE9003605F01302A1882068C5F34113EF
:107EE00041F028FD02B070BD4FF0FF33E8E700BF5E
:107EF000ECDF040800B1D9E770472DE9F84FDFF84F
:107F000060832C2303FB00830746D3F87C57D3F808
:107F10008467D3F88847002D00F05B8126B196F97D
:107F20000630002B40F0558124B194F90630002B27
:107F300040F04F817B1CDBB216B11522B271F37198
:107F400014B11622A271E3714FF02C0909FB07F955
:107F500008EB090A95F828003FF07EF821463046E4
:107F600043F042F99AF88E379AF88C27002B0CBF11
:107F70004FF01E0B4FF03E0B59463046FFF7BAFF4D
:107F800020469AF88D275946FFF7B4FFDAF87C3778
:107F9000A6485C6814220021484445F0FBFC236895
:107FA00023F001032360A24B9C4203F5DE3340F033
:107FB00012819A6B42F400129A639A6B22F40012B7
:107FC0009A639A689FED9B7A9FED9B5A2C2303FB43
:107FD00007809A4BB0F89087C2F302221344B0EEA8
:107FE000084A93F87022964B5B6802F01F02D34058
:107FF00007EE903AF8EE677A0026C7EE275A40F26D
:10800000145C07EE908A9FED8F7AF8EEE77A25EE02
:10801000844AC7EE274ADFED8C7AB0EE007AE5EEAF
:10802000877AA5EE875A74EEE72A37EE856AF7EE6F
:10803000003AB8F5C87F06F1010707EE907AD5BF80
:108040004FF496727822642332231344F8EEE76AE1
:1080500007EE903A66EEA56AB8EEE77AA2F1320230
:10806000C7EE267AD5BF4FF4167E4FF4827E614666
:108070004FF4FA71714407EE102A77EEE37AB8EE06
:10808000C77AFCEEE77A37EE447A17EE903AC7EEFD
:10809000267AFCEEE77A17EE900A07EE90EAB8EE41
:1080A000E73A07EE901A23EE243AF8EEE77A83EEE9
:1080B000277A37EE453A32EEC77AC3EE267A77EE64
:1080C000E37AFCEEE77A17EE901AC7EE267A77EE9F
:1080D000E37AFCEEE77A17EE902A02F1020E0EEB3D
:1080E000010907EE909AF8EE677AB0EE467AA6EEAE
:1080F000A77AF4EEC74AF1EE10FA00F3918043EA52
:10810000000E5FFA8EFEBEF10F0F00F28B8041EA87
:10811000020E1FFA8EFEBEF1FF0F00F283801B05D8
:10812000000400F47F0003F07F630343474843EA01
:10813000067300EA01210B4392B21343226822F036
:1081400001022260226822F4F8522260236123682F
:1081500043F001032360A36823F40043A360A368F2
:108160006FF30A03A360236823F44013236063685A
:1081700023F400436360236843F00103236000227B
:10818000114695F92A003BF0FDFC95F92A2095F857
:108190002A30002A08DB5909012203F01F0302FAE2
:1081A00003F32B4A42F821300022114695F92900A9
:1081B0003BF0E8FC95F9292095F82930002A08DBE6
:1081C0005909012203F01F0302FA03F3204A42F87F
:1081D0002130BDE8F88F1F4A944207D19A6B42F4D0
:1081E00080029A639A6B22F48002E9E61A4A94426A
:1081F00007D19A6B42F080429A639A6B22F08042D8
:10820000DEE6164A94427FF4DCAEDA6B42F00202FC
:10821000DA63DA6B22F00202DA63D2E63E4608E75E
:1082200001315CE70F2FF9D1002387E724310020CB
:1082300000540040286B6E4E00001643ECDF04082B
:1082400000000020002474490000704200FFFF007D
:1082500000E100E000580040007800400084004049
:108260009029002008B1002220E6704770B50F4C1D
:1082700094F86C65BEB104F56674002504E0013520
:10828000B54204F120040ED0237F002BF7D0E06824
:1082900000220028F3D0217D0135FFF707FEB5420B
:1082A00004F12004F0D1012070BD00BF9818002017
:1082B00070B590F872301C09013C052C0FD8194E8E
:1082C00006EB44020546B2F8780203F00F0340FAC9
:1082D00003F2D20703D595F87520012A01D00120B9
:1082E00070BD9A40013A1040264445F05DFE96F874
:1082F00084320D4A034402EBC30452F83320A388AE
:1083000010691840ECD0002395F8732085F875307B
:1083100002212046FFF7CAFD2A6E136843F00803C6
:108320001360DCE7ECDF0408FC310020800000F182
:10833000804000F514500068704700BF800000F1D5
:10834000804000F514500160704700BF10B4254B09
:108350002548996D254A41F0805183B09965996D02
:1083600001F0805101910199016841F4807101602F
:10837000996D41F480619965996D01F48061009176
:108380000099D3F8901041F40041C3F89010FF24F5
:10839000CA205321546250625162D3F89430DB00FA
:1083A00014D4134B13490022C3F80425C3F808253D
:1083B000C3F80C25C3F81025C3F81425C3F81825F5
:1083C000C3F8001503B05DF8044B7047A2F50062D6
:1083D000084BD2F800259A42E3D103B05DF8044B74
:1083E000704700BF001002400070004000280040AD
:1083F00000200040316665422DE9F84FD0F8286131
:108400008368F5B21F68534B083DA3FB05352D0962
:10841000044626F0FF08013500F1F80A00F1BC0916
:108420002946404641F0C6F9D4F8E8200023B2F5C9
:10843000807F84F8EC301CD00ED9B2F5804F18D074
:1084400070D8B2F5806F14D0B2F5805F6FF4006120
:1084500014BF382304230FE0102A78D06BD8012AE8
:108460004ED0042A16BF6FF400616FF00801382364
:1084700002E06FF008010423524607F1180A38465B
:108480005AF803C001EA0C014AF80310D4F8E8B026
:10849000594640F045FFBBF5807F2DD01DD8BBF17C
:1084A000100F51D02FD8BBF1010F02D0BBF1040F38
:1084B0002CD10827DAF800303B43CAF800301023EB
:1084C000C4F8C4304A462946404641F031F9336881
:1084D00043F002033360BDE8F88FBBF5804F0BD04B
:1084E00019D8BBF5806F07D0BBF5805F0ED107F1BF
:1084F0001C0A4FF40067DDE707F11C0A0827D9E7DB
:108500006FF00801B8E7BBF1400FD2D00AF1380A8A
:108510004FF40067CEE7BBF5803FF7D107F1500A73
:108520000827C7E7B2F5803F14BF6FF400616FF012
:1085300008013823A0E7402A15BF6FF400616FF0EF
:1085400008013823002397E74FF40067B2E76FF480
:10855000006191E7CDCCCCCC2DE9F043046E5D4AAF
:10856000236823F4F8738DB02360A36823F001031C
:10857000A3602368944223F001030546236068D07A
:10858000554B9C4213D0554B9C426CD0544B9C4253
:1085900074D0544B9C4214D103F5E0339A6B42F4EF
:1085A00080129A639A6B22F480129A6309E003F5B1
:1085B000E6339A6B42F400329A639A6B22F40032EB
:1085C0009A632A79AE686B7902F0010192072268FA
:1085D0004FEA810148BF41F00801D70736D422682D
:1085E00041481F0210409A0207F4806702F480524B
:1085F0003A4302430A43226062683C4F1B0322F461
:10860000405203F4005313436360A368314AE71BED
:10861000B7FA87F723F440737F099442A3604FEAC7
:10862000870736D02C4B9C4268D02C4B9C4200F0E4
:1086300030812B4B9C4200F0AC812A4B9C4200F0D5
:108640005D81E36A23F00F033B43E3620DB0BDE8B5
:10865000F083274B1A6C42F480421A641A6C22F49D
:1086600080421A64ADE703F5E4339A6B42F480224A
:108670009A639A6B22F480229A63A2E703F5E233AD
:108680009A6B42F400229A639A6B22F400229A6356
:1086900097E7DFF85C80174AD8F8883003F00303C7
:1086A00043F44033934200F08781B3F1031F35D088
:1086B000013A934200F035813BF0B2FED8F8083021
:1086C0000D4AD8F80810C3F303131344C1F3C221B1
:1086D000FDE000BF00380140004400400048004079
:1086E000004C004000500040F369FFEF0080004064
:1086F0000010024002000300ECDF0408DFF8E8820B
:10870000B24AD8F8883003F00C0343F44023934274
:1087100000F0ED80B3F10C1F40F00A81D8F89030E2
:108720009A078ED54FF40043002E8AD0A84A02EB58
:108730008702D2F89C22B3FBF2F303EB5603B3FBA0
:10874000F6F39BB2E360E36A23F00F033B43E3627B
:1087500069792E79CB0700F1EF8006F0010206F06F
:10876000020695F874301BB1636843F400436360FC
:10877000A36843F48053A360236823F0005323606D
:10878000636823F490436360A3680F0723F02A0310
:10879000A36003D5A36843F00803A360236843F0F4
:1087A00001032360002A3DD0D5F83C80B8F1000FCA
:1087B00000F0D3806B6C099304F1240300938023B1
:1087C0000593202303934FF480530A935FFA88F7AD
:1087D000804B083FA3FB07370023029304933F0914
:1087E0006B6901930137EB68089328F0FF090023B8
:1087F000002239464846CDE9062340F0DBFF3946E2
:1088000048466A4640F094FFD8F8003043F0010330
:10881000C8F80030A36843F04003A360D8F80430E0
:108820009BB26B65002E3FF411AF2F6C002F00F050
:10883000A580684BFEB2083EA3FB0636AB6C0993DD
:108840001023029304F1280300933609802327F0B4
:10885000FF08013605934FF480530A9331460023F5
:108860004046CDE90333CDE906330193089340F048
:10887000A1FF6A463146404640F05AFF3B6843F04C
:1088800002033B60236843F0400323600DB0BDE862
:10889000F083DFF85481504AD8F8883003F0300371
:1088A00043F44013934222D0B3F1301F3FF436AF6C
:1088B000103A934235D03BF0B3FDD8F80830444A23
:1088C000D8F80810C3F303131344C1F302210A4478
:1088D00093F88C3292F8702203F01F0320FA03F30E
:1088E00002F01F02D340002B7FF41EAFA9E6D8F898
:1088F000003059057FF5A5AE384B15E7DFF8E88065
:10890000374AD8F8883003F4407343F040739342F9
:10891000EDD0B3F1032F3FF401AFA2F58072934283
:10892000C9D13BF07DFD0346002B7FF4FDAE88E608
:10893000043A9342F5D0BEE716F0010203D0636813
:1089400043F48033636016F002063FF40AAF6368B5
:1089500043F400336360022603E7236843F4807323
:108960002360A36843F00103A360236843F020035E
:108970002360236843F01003236053E7236843F028
:1089800080032360236843F0400323600DB0BDE8FB
:10899000F083DFF85480134AD8F8883003F0C0031E
:1089A00043F440039342A2D0B3F1C01F3FF4B6AEEC
:1089B000403A9342B5D07EE7D8F8003058059BD4B2
:1089C000E36A23F00F03E36240E600BF08000C00F7
:1089D000ECDF0408CDCCCCCC200030000024F40027
:1089E000000200038000C0000010024038B50409F6
:1089F000013C052C1AD80F4D05EB440200F00F0383
:108A0000B2F8780240FA03F212F0010210D001220B
:108A100002FA03F3013B1840254445F0C5FA95F8E6
:108A20008432054A034402EBC30038BD002038BD40
:108A3000104638BDECDF0408FC3100202DE9F0477A
:108A4000002488B0CDE90344CDE905440DF10C0CB8
:108A5000C0E93744C0E93944C0F8EC40054600F1AC
:108A6000F00EBCE80F00AEE80F00CEF8004095F81D
:108A70000901334E0794C5F8346110B908B0BDE858
:108A8000F087FFF7B3FF0446002834D00068A188C0
:108A900006690E40F2D12B4ADFF8B4E02A4F2623B4
:108AA000E380D2F800C045F80CEFB1FA81FADFF8A4
:108AB000ACE0CAF11F039E4407EB83039EF8CC820F
:108AC000C3F80C514FF0004929FA0AF52CEA0503C6
:108AD0004744136055613346CDE900661B4A40F0B8
:108AE00029FF97F86C3B4BB9164A13682B43136068
:108AF00008B0BDE8F087164BEB60BFE7154B87F871
:108B00006C6B13F9085032463146284613F808605A
:108B10003BF038F8002DA5880CDB71090E4A06F0F1
:108B20001F060123B5FA85F5B34042F8213029FA32
:108B300005F5D9E7B5FA85F529FA05F5D4E700BFBB
:108B40003B43413B000401409029002000001110EC
:108B5000BD670008285D050800E100E0ECDF0408BF
:108B60002DE9F84F734E00EB400306EBC303D3F837
:108B7000744B002C00F0978093F8848B642106F6E8
:108B8000D43201FB0022054647004046C3F8802B43
:108B90003EF062FA4FEA5813012208F01F08013B29
:108BA00002FA08F2052B09D8DFE803F0ABB103B7EE
:108BB000BDA561498B6B23EA02038B637B1906EB2E
:108BC000C30305F1010B93F8780BFFF70FFF5FFA72
:108BD0008BFB804618B1122380F807B083717B1994
:108BE00006EBC30393F8790BFFF700FF824618B139
:108BF000132380F807B083717B1906EBC30393F846
:108C00007A0BFFF7F3FE814618B1142380F807B002
:108C100083712F4406EBC706504696F87C2B2E2115
:108C2000FFF768F996F87D2B48460E21FFF762F9A9
:108C300096F87B2B2E214046FFF75CF923683F4ACC
:108C400023F04003944223602FD03D4B9C4236D109
:108C500003F5EC339A6B42F480429A639A6B22F4E8
:108C600080429A63636843F48053636023685B06C1
:108C700011D4236823F47F4323F0BF0343F44573E7
:108C800043F003032360636823F4706323F0040359
:108C900043F4E0636360E36923F40063E361236802
:108CA00043F040032360BDE8F88F234B1A6C42F475
:108CB00080521A641A6C22F480521A64D2E7214B53
:108CC0009C420DD0204B9C42CCD103F554431A6CEE
:108CD00042F400421A641A6C22F400421A64C1E79A
:108CE00003F5EA339A6B42F400429A639A6B22F4DA
:108CF00000429A63B6E710490B6B23EA02030B6349
:108D00005CE70D49CB6A23EA0203CB6256E70A49C6
:108D10000B6C23EA02030B6450E70749CB6B23EA91
:108D20000203CB634AE704498B6A23EA02038B629E
:108D300044E700BF902900200010024000300140AD
:108D400000380040003C0040003C01402DE9F04F5D
:108D5000DFF890929E4E9F4F83B082464FF00108FD
:108D6000DAF800506C684C4500F049819A4B9C42FF
:108D700000F0488103F580639C4200F04681974AE9
:108D800094420CBF4FF0030C4FF0FF3C2368BAF83D
:108D9000041028899AF86820009223F04003884242
:108DA00085F82480236014D0B1F5807F0B46A8BFDE
:108DB0004FF48073022BB8BF0223206893FAA3F309
:108DC000B3FA83F320F03800013B40EAC303236089
:108DD00029819AF80CB0A97A59451ED080490CEB2C
:108DE0004C0201EBC202019292F8780BFFF7FEFDF4
:108DF000019A92F87B2BBBF1000F40F0D98010B1A3
:108E00002E21FFF753F8226842F001022260226807
:108E100042F00202226085F80AB0236895F80CE05F
:108E200043F0400323602B6A9A68002A00F0F28026
:108E300000201433844653F8101C944401EA0602BF
:108E400039B16969002937D0B2F1805F34D0BA42B4
:108E500032D053F8142C143302EA060122B1B1F1D6
:108E6000805F29D0B94227D053F80C2C0130002A5A
:108E7000E1D1BEF1000F1FD0009BEBB1012802D859
:108E8000BCF1070F10D9296ADAF8000042F0E2FCC1
:108E9000DAF8083013B11A689B889362504603B021
:108EA000BDE8F04FFEF764B800EB800082002B6A4B
:108EB00013441B7B002BE6D02B6A9B684FF0000B02
:108EC000002B00F09180BBF1000F02D09BF80C301A
:108ED0002BB1DAF8083013B11A689B8893622B6AB9
:108EE00018682B6A59682B6AD3F808C06368BCF10C
:108EF000010F23F48053636014DD6246A3689B076F
:108F0000FCD5002851D030F8023BA381A368DB07D1
:108F1000FCD5E36809B121F8023B023A012AEDDCF5
:108F20000CF0010C636843F480536360BCF1000FE4
:108F300014D12B6A1B7B1BBB2B6A1B69002B2AD00D
:108F40002B6ADAF874001B699847012828D0022898
:108F500021D100232B6203B0BDE8F08FA3689A07EC
:108F6000FCD5002831D003782373A368DB07FCD538
:108F7000E3680029DDD00B702B6A1B7B002BDBD054
:108F8000DAF80830002BD7D01A689B8893612B6AD7
:108F90001B69002BD4D1D5F820B02B6A14332B6277
:108FA0002B6A9B6803B36C688DE74FF6FF73ACE7E1
:108FB00010B14E21FEF77AFF226822F001022260F2
:108FC000226822F00202226025E7FF23CCE700BFDF
:108FD0000080FFFF0080012000380040003C01407D
:108FE00090290020003001402B6A1B6883B12B6A56
:108FF000D3E900A100222962C3E90022B0E64FF0C4
:10900000000CC3E64FF0010CC0E64FF0020CBDE6C9
:109010002B62A0E7BEF1000F3FF44EAF009B002B88
:109020007FF445AF48E700BFF8B5C569002D56D0BD
:109030002C68236A1B7B002B5DD1D4E904160F68D2
:109040000B7A4249626830680B4413F801CC57F838
:109050000C3023F0010347F80C30377A39440223EF
:1090600011F801CC50F80C1021F0010140F80C105F
:10907000317D8B4043F00C034360536823F00203BF
:109080005360536823F001035360236A1B693BB1AB
:10909000236A686F1B69984701284AD0022820D0AC
:1090A000236ADA694AB9586900282BD09969216284
:1090B000C3E90522BDE8F84048E6216A94F8242077
:1090C0000E7B1433F6B223621ABB002E2AD1284637
:1090D000FDF74EFF2868016ACB69002B14DCF8BD50
:1090E0002362236ADA691433002AF9D1236ADA6920
:1090F000002AE2D1D7E7AB68002B9ED01A689B8884
:1091000093619AE72062F8BDBDE8F840143142F05F
:10911000A1BB216A286842F09DFB002384F824301B
:10912000002ED4D0AB68002BD1D01A689B889362F4
:10913000CDE7236A2868143B2362016ACB69002BC0
:10914000AEDD143142F086FBAAE700BF1C5D0508C6
:1091500008B51D20FFF74AFC10B190F9063053B155
:109160001E20FFF743FC10B190F9063003B108BD93
:109170005523C38008BD5523C380F1E7F8B50E4CD5
:1091800094F86C75A7B104F2AC74C7F1090709250E
:10919000013D0FD0A6683079FFF728FC94F8B8108D
:1091A000F27908B1FEF782FEAF4204F59A74EFD16E
:1091B0000120F8BDAB68FFDE9818002070B4046E83
:1091C000EFF31181502383F31288036C1A6812F0B5
:1091D000010230D1D0E90965AE4229D01FFA85FCE1
:1091E00021D816460269A2EB0C021FFA82FC8269A2
:1091F00086622A44002580F8645040202062DA60AC
:109200005A686FF30F0242EA0C025A601A6842F081
:1092100001021A60A36843F08003C9B2A36081F31E
:10922000118870BC7047A6EB0C0C1FFA8CFCDEE7B3
:10923000012380F86430C9B281F3118870BC704793
:1092400010B40346C06993F814C01C68016C022274
:1092500002FA0CF262600B685DF8044B23F0010324
:109260000B60ABE770B5046E23689A06054602D51D
:10927000E3699B064CD4E369DE0744BF0123236204
:10928000E369980744BF02232362E369590744BF97
:1092900004232362E3691A0744BF08232362236877
:1092A0005B0602D5E3695E0626D42368180602D55C
:1092B000E36919060BD42368DA0607D5E369DB06F0
:1092C00004D56B6B03B198471023236270BDD5E9B9
:1092D000092393422FD02268A96912F0102F18BFDA
:1092E0002268CA5CD2B2A2622A690133B3FBF2F1EE
:1092F00002FB1133AB62DEE74023236295F8756011
:10930000F6B12B6C002BD0D02846FFF757FFCCE7E7
:10931000606AEB6AC0B233B3296B9847236823F4C1
:1093200080732360A36823F00103A360A36943F063
:109330000803A3619FE7236823F080032360BAE753
:1093400095F87200FFF752FB2A6E1368012123F093
:109350000803136085F875100028D2D0324620210A
:10936000FEF7A4FDCDE7EB696A69D054EB69EA68C2
:109370000133B3FBF2F102FB1133EB61CEE700BF27
:10938000BFF34F8F0549064BCA6802F4E0621343EE
:10939000CB60BFF34F8F00BFFDE700BF00ED00E0E3
:1093A0000400FA052DE9F047BFF35F8F504A002112
:1093B0000B46C2F894100846C2F898300133112BBE
:1093C000C2F89C10C2F8A010F6D10523C2F8943060
:1093D000BFF34F8FBFF36F8FBFF35F8F454C444E8A
:1093E000C2F894000025012721E000284ED0226811
:1093F000637AA17A94F80BE094F80CC01B0643EA58
:10940000017343EA4003617BC6F8985043EA8E43F8
:1094100043EA4C4343EA0143013543F00103032D82
:10942000C6F89C2004F11004C6F8A0302FD0D4F860
:109430000480207AB8F1000FD7D022680028D7D155
:1094400022F01F09A8EB090ABAF1200F38BF4FF02C
:10945000200A504644F07EFA431E07FA03F2924572
:1094600008BF184607FA00F35A4202EA09021344F9
:10947000984509D90121013001FA00F35A4202EA64
:10948000090213449845F6D8C0B2B1E7FEE70523B8
:10949000C6F89430BFF34F8FBFF36F8FF368164C4D
:1094A0004FF6FF02134043F00523144A43F47A03B6
:1094B000F360D2F89430C4F8643D3AF08FFED6F8E9
:1094C000FC100F4B0F4AB0FBF2F241F08071C6F86E
:1094D000FC100021596019680B4841F00101196026
:1094E0008368C4F8682D43F480438360BDE8F08747
:1094F00000ED00E028040020902900200010024028
:10950000001000E040420F000070004008B572B645
:10951000FFF736FF03689B0AA3F58013542B57D837
:10952000F0B5374C23441B7E0B2B50D8354D40797A
:1095300005EB83148708D4F86C6D334C03EB830080
:109540004FF0020E03EB40000EFA07FE38444FEADC
:10955000831CF768002941D047EA0E0704EB800E10
:10956000CEF87415CEF88425F760EFF3118E5022F3
:1095700082F312882C2101FB0340D0F8702542B3FE
:10958000C0F89425111D214A214E03EB830003EB03
:109590004000800006441030024452F8040F08B125
:1095A0000860011DB242F8D100225FFA8EFE0A6007
:1095B0008EF311882C2202FB0344D4F89435BBB1FE
:1095C000AC44DCF86C2DD36843F00103D360F0BDEC
:1095D00070470E4A01FB03212431D5E727EA0E0725
:1095E000F76004EB8006C6F87415C6F88425BCE75E
:1095F0006544D5F86C2DD36823F00103D360F0BD2A
:10960000ECDF04089029002098180020081E002094
:10961000281E002003689B0AA3F58013542B00D951
:1096200070470E4A13441B7E0B2BF9D810B40C4C18
:10963000427904EB83109208D0F86C0D022393401A
:10964000C26829B922EA03035DF8044BC36070477E
:1096500013435DF8044BC360704700BFECDF0408A0
:109660009029002003689B0AA3F58013542B0FD880
:10967000084A13441B7E0B2B0AD80749427901EB99
:10968000831192080223D1F86C1D9340DB430B61D8
:10969000704700BFECDF0408902900200149024810
:1096A000FDF704BC081E0020002C014010B5064C3C
:1096B000064804F5AE61FDF7F9FB04F2FC610448CD
:1096C000BDE81040FDF7F2BB98180020002C0140C7
:1096D0000044014002494FF08040FDF7E7BB00BF66
:1096E000341E002001490248FDF7E0BB601E002047
:1096F0000004004001490248FDF7D8BB8C1E002041
:109700000008004001490248FDF7D0BBB81E002008
:10971000000C0040F8B5164D164E2A69EB681A4049
:109720004FF00040B2FA82F320FA03F3DB4302EA7F
:109730000301C2B1012A2B6101D00A46F2E7D6F833
:1097400074768FB1013F0023BFB2C6F87436D6F8E5
:10975000704634B123682046394698476468002C27
:10976000F8D10022DCE7F8BDEF6ABFB2EFE700BF37
:10977000001000409818002001490248FDF796BBF0
:109780003C1F00200034014001490248FDF78EBB18
:109790003C1F00200034014001490248FDF786BB10
:1097A000681F00200040014001490248FDF77EBBD0
:1097B000C01F00200048014001490248FDF776BB68
:1097C000EC1F0020005001402DE9F0414FF40F72D2
:1097D0008CB05648564D002144F0DCF8554B1A6EBB
:1097E00042F400621A661A6E02F400620092009A55
:1097F0009A6D42F001029A659A6D02F0010201929F
:10980000019A9A6D42F002029A659A6D02F0020284
:109810000292029A9A6D42F004029A659A6D02F0E1
:1098200004020392039A9A6D42F008029A659A6DB7
:1098300002F008020492049A9A6D42F010029A65AE
:109840009A6D02F010020592059A9A6D42F020027C
:109850009A659A6D02F020020692069A1A6E42F4F8
:1098600000521A661A6E02F400520792079A1A6E94
:1098700042F480321A661A6E02F480320892089A14
:109880001A6E42F400321A661A6E02F4003209921D
:10989000099A1A6E42F480221A661A6E02F4802225
:1098A0000A920A9A1A6E42F480121A661B6E03F428
:1098B00080130B930B9B4FF00008A5F5377605F648
:1098C0002C2440F28B2755F82810002354F833201D
:1098D000914226D001330C2BF8D1002008F1070863
:1098E0003DF0BAFBB845EED14FF0000840F28B27AF
:1098F00055F82810002354F8332091420CD001333E
:109900000C2BF8D1002008F107083DF0A5FBB84565
:10991000EED10CB0BDE8F08106EBC30393F80C0D5B
:10992000F1E706EBC30393F80C0DD7E7081E002000
:10993000C8E20408001002401F4A204B904210B4B5
:109940005B6827D002F50062904223D002F54062A6
:1099500090421FD002F5806290421BD002F58062D7
:10996000904217D002F50062904213D01448154A75
:1099700081688468C1F302210A4414F4E06F92F80C
:10998000702202F01F0223FA02F000D040005DF8BE
:10999000044B70470A480B4A81688468C1F3C221AE
:1099A0000A4414F4605F92F8702202F01F0223FA56
:1099B00002F0ECD04000EAE7002C0140000000205B
:1099C00000100240ECDF04082DE9F8430468A30A04
:1099D000A3F58013542B51D81646474A13441D7ED5
:1099E0000B2D4BD8DFF81C91013909EB851889B292
:1099F000C8F8781D0068FFF79FFFB0FBF6F001384C
:109A0000C8F8700DD8F86C0D09F66C53AF01A04280
:109A100003EB851505F1040169D007F10802134431
:109A20000022C8F8742DC8F86C4DC3E9022298F8DA
:109A3000A93D03F0FF02002B56D009EB07050226D3
:109A4000204685F8A96D3AF001FC2C4A0123944286
:109A500085F8A93D35D0B4F1804F11D0A2F59432EC
:109A600094420DD002F58062944209D002F58062E2
:109A7000944205D002F59432944222D0BDE8F88396
:109A800095F8A82D012AF9D085F8A96DA1681C4A7E
:109A90000A40A26085F8A93D85F8A96D6368A268AF
:109AA00023F00073B94423F07003636022F0800256
:109AB00001210023A26089F8A91D89F8A83DBDE80D
:109AC000F88395F8A82D012AD8D085F8A96DA1684A
:109AD0000B4A0A40A26085F8A93D85F8A96D636824
:109AE000A26823F47003DBE788F8A82DA5E7BDE89A
:109AF000F8433AF0ABBB00BFECDF0408002C014098
:109B00008800CEFF9029002003689B0AA3F58013EC
:109B1000542B06D870B5304E33441D7E0B2D01D921
:109B200070BD70470446FFF74FFF2C4BA80103EBB5
:109B300085150222D5F86C1D85F8A92D8D68284A57
:109B40002A40062A06D0B2F5803F03D00A6842F0C8
:109B500001020A600344012283F8A92D20682149EB
:109B6000002351F8332090420BD001330C2BF8D155
:109B70000122114600203AF005F81B4B01221A6021
:109B800070BD06EBC306012296F90D4D96F80D5DEA
:109B90001146204639F0F6FF002CC1DB124C6B0950
:109BA00005F01F01012202FA01F11B2D44F82310D8
:109BB00007D11146192039F0E5FF4FF000732360FB
:109BC00070BD2E2DACD111462C2039F0DBFF4FF4A7
:109BD0008053636070BD00BFECDF04089029002053
:109BE00007000100F4EC040800E100E02DE9F04F6B
:109BF000AD4FAE4EDFF8C09293B000230193A7F6AD
:109C00004865AB4CAB4BD4F800A013F83A2C4FEAA4
:109C10009A23A3F58013542B00F2C8802B441B7E9B
:109C20000B2B00F2C380012A16F903B000F0F58077
:109C3000022A02D1BBF1080F34D14FF0000841468F
:109C400058460FF0B1FA0FF03DFB90F9003013B118
:109C5000542B40F0C58108F104081FFA88F8B8F1C8
:109C6000100FECD1019B0021002B00F0A980924A3B
:109C70000AE02B441B7E0B2B0DD8F3565B450DD011
:109C8000E4324A4500F09980906803689B0AA3F586
:109C90008013542BEDD900235B45F1D143796079D2
:109CA0009842EDD11C34A742ACD1019B0133042B67
:109CB000019309F1E409A4D1804A92F86C3501338B
:109CC00002F5667903934FF0010B039B5B456AD065
:109CD000784BD9F80C6099F8102013F8263C0192C3
:109CE000002E60D0754AD6F800A05568B28802925E
:109CF0000AF13840002D4FEA902040F39A806E4AD6
:109D0000002405E00134AC4202F1E40200F08E8050
:109D100011688142F6D1684B029DE42202FB0434B3
:109D2000019B89F81030029BC9F80C60B3FA83F7E5
:109D3000C7F11F034FF00302C9F80430C9F81840F7
:109D4000B27186F807B0A16C206C5E0001224FF062
:109D5000030C0CFA06FC02FA06F63143A1645749DB
:109D60000E7840EA0C0002FA03F32064D4F84CC0E9
:109D7000D4F8940099B2002E00F0388143EA0C0325
:109D8000E364CAF81850FCF793F920460BF1010B75
:109D9000FCF762F940F20113BBF1090FA9F81C307E
:109DA00009F1200991D113B0BDE8F08F013A012AE1
:109DB0007FF678AF4FF0000B3FE700297FF472AFDA
:109DC000A0683F49002205E00132102A01F10C0190
:109DD00000F037834B689842F6D152B26179504611
:109DE000FDF718FF374A4068002304E0102B02F10A
:109DF0002C023FF457AF516888429C4603F101039F
:109E0000F4D1314B2C2202FB0C3393F98831002B17
:109E10007FF448AFC9F8084047E7BBF1010F3FF4B2
:109E20000CAF1C34A7427FF4EDAE3EE7042C00F0EB
:109E30003182224AE42101FB0522116904910029A3
:109E400000F0DE8290604FF054010130C4B282F81D
:109E5000E8101A4982F8E9406A1C4A60049A51796C
:109E6000106897680591002215499C4605E001326B
:109E7000102A01F10C0100F0E4824B689F42F6D1F8
:109E80000599CDF818C052B2FDF7C4FE0B4BDFF8B0
:109E90003480D0E90171E42202FB0532C2E9077186
:109EA000069B4146002216E034EE04080C5D0508CE
:109EB00054ED0408883A0020A018002098180020CB
:109EC000A80000206801002000000020102A01F1F5
:109ED0002C013FF468AF48688742944602F10102C2
:109EE000F4D187492C2202FB0C1C9CF98821002A02
:109EF0007FF459AFE422079302FB05F35A0002EB0B
:109F0000A302C2EB422202EB824252427D498CF80C
:109F1000894102EB42008C2400EB001001EB800031
:109F200004FB02F201F54C7101EB42027649069303
:109F30001944C1E9352454228CF888213322C1F810
:109F4000A020049AC1F89C00C1F80CA0D2F800A08F
:109F50006E4A5046D418FFF7EFFC079B062B00F023
:109F6000A081072B6A496B4B6B4A18BF1A466B4B93
:109F700018BF0B46B0FBF3F3B0FBF2F26248E421EA
:109F800001FB0501013B9BB2013AA1F8A420A1F815
:109F90006C30A365069B03F1500100F108031944DE
:109FA0000023A4F85030E365636550463FF06AFB38
:109FB000DAF80030059A43F08003CAF800300C2A22
:109FC00022D8DFE812F0D901210021002100B601DA
:109FD00021002100210096012100210021007101B2
:109FE000019B0121002B7FF442AE5BE6C7F12F07F6
:109FF00002FA07F343EA0C032D04E3643246CAF87D
:10A000001850FCF755F8C0E63F4AE42303FB05234C
:10A01000602259690A92DAF8003007914FF4807291
:10A020001092012223F001030B924FF0020C0A223E
:10A03000CDE90D2CCAF800300AAA002350460C9333
:10A040000F9311933FF06CF90799B1F5807F4FF0B2
:10A0500000030AD040F2C981B1F5804F05D000F26B
:10A06000D681B1F5806F40F0DF81082204230AF128
:10A070001800C1580A43C250049B1879002840F0C8
:10A08000A181DAF8003043F00103CAF80030002360
:10A0900004E0102B08F12C0800F09081D8F804207F
:10A0A0009742194603F10103F3D10493144B2C2278
:10A0B00002FB0132D2F86801194A904214BFA12074
:10A0C000A0203CF0C9FF174A0F48916C049BDFF8B1
:10A0D0005CC041F004019164926C059902F00402A5
:10A0E0000C290992099A9BBF0F4A02EB41020021F9
:10A0F000B2F8481EE42202FB0502118300221EE092
:10A1000000000020643A002098180020A0180020C9
:10A11000D0DD0600449508001055220040771B0052
:10A120000000024000100240ECDF0408F44100206F
:10A13000824500F077810132042A00F085815CF8C5
:10A1400032000028F4D1C2480746D0F88C0701300D
:10A15000C7F88C0707EBC200D200C0F86CA76244B6
:10A1600018469388194391802346BA499022FDF7F7
:10A1700041FEB94BE42707FB05374FF00008FD69A6
:10A180002A6842F002022A602A6842F00A022A6023
:10A19000C4E91D883A6AC4F88C204FF44052C4F8D0
:10A1A000902080231022E3672267D7F8A020C4F80C
:10A1B0008820E9B2A94AD7F80CA0069B0839A2FB6F
:10A1C00001214FF40072C4F880200AF11802A2663F
:10A1D00003F16802A24B4FF4006C1A440909D7F846
:10A1E0009C30E36625F0FF000131C4F884C0CDE95E
:10A1F00004013FF09DFAD5F800E0C4F820E0D5F85E
:10A2000004E0C4F824E0069BD5F808E0C4F828E090
:10A21000D5F80CE0C4F82CE0C4E92A8803F1A002C8
:10A220008F4BC4F8B0801A443B6AC4F8C430802312
:10A23000C4F8B4304FF40053C4F8C830D7F8D8305D
:10A24000C4F8C0300AF1100A4FF48073C4F8A0A01B
:10A25000C4F8B830D7F8D430C4F8A4304FF48063D1
:10A26000C4F8BC30DDE904013FF062FA2B682363D7
:10A270006B686363AB68A363EB68E3632B68D6F832
:10A2800000A043F002032B602B6843F00A032B600D
:10A29000B58845E56E4A032302F8253C13B0BDE8B6
:10A2A000F08F704A704B65E66B49DAF80030E422B3
:10A2B00002FB051223F001034FF480515161CAF8EB
:10A2C000003000230C930F93119360230A934FF4F3
:10A2D0008073109301230B934FF0020C0A230AAAF8
:10A2E0005046CDE90D3C3FF01BF84FF400620423CB
:10A2F000BDE65949DAF80030E42202FB051223F0EA
:10A3000001034FF480715161CAF8003000230C93AF
:10A310000F9311934FF0600E0123CDE90AE302225F
:10A320000A23CDE90D3250460AAA10913EF0F8FFFB
:10A330009BE64949DAF80030E42202FB05121021BD
:10A340005161602223F001030A924FF48072CAF82F
:10A3500000301092002301220C930F9311930B9263
:10A3600002230A22CDE90D2350460AAA3EF0D8FF67
:10A3700000234FF400627AE63749DAF80030E4222D
:10A3800002FB051223F0010301215161CAF80030DC
:10A3900000230C930F93119360230A934FF480735F
:10A3A00010934FF0020C0A230AAA5046CDE90D3C47
:10A3B0000B913EF0B5FF0822002358E64FF0FF3125
:10A3C000002372E6FEF712FB079038B1049B0221CE
:10A3D000DA79FDF76BFD079B5422DA80DAF8443016
:10A3E00043F40043CAF844304BE6102926D016D86F
:10A3F000012921D00429DED04FF40062382336E64B
:10A40000134A022302F8253C13B0BDE8F08FB1F5E2
:10A41000803F14BF4FF400620822382327E640290A
:10A42000C9D0E9E7D2009AE6B1F5805F4FF4006247
:10A4300014BF382304231AE6082218E64FF40062FA
:10A4400015E600235B68FFDE00239B88FFDE00BF6C
:10A45000883A0020F960000898180020CDCCCCCCB8
:10A46000A0180020882A1100A0BB0D0037B590F875
:10A470005F38032B04462FD10023204D8DF8073081
:10A480009DF8073094F860289A4201D803B030BD97
:10A490009DF8073005EBC30393F894378BB181F037
:10A4A000010383B19DF8073005EBC303D3F8900790
:10A4B000FDF75CFB9DF807300133DBB28DF8073008
:10A4C000DEE70B46EDE79DF8073005EBC303D3F855
:10A4D0009007FDF751FBEDE7D0E910039B7903F0FE
:10A4E0000103994204D003B0BDE83040FDF73EBB04
:10A4F00003B0BDE83040FDF73FBB00BF883A002005
:10A5000038B5044600790D4650B1FEF76FFA08B130
:10A510000323C380E2792946BDE83840FDF7EABC51
:10A5200038BD10B522210446FFF7EAFF2046FFF7A9
:10A5300099F8BDE810400121FFF76CB810B5012172
:10A540000446FFF7DDFF20460021BDE81040FFF77D
:10A5500061B838B510F8133CA0F664041BBB94F83E
:10A5600050388BBBD4E909239A421CD05A1CA169EC
:10A57000A262CB5C21695B0043F40073A4F85438F9
:10A580000A2384F85238012384F8503894F85F384D
:10A590008A4228BF0022012BA26201D0042B02D1E3
:10A5A000606CFFF7CBFF94F84C38002B6DD194F81A
:10A5B0004D380133DBB2092B84F84D3825D12046C4
:10A5C000BDE83840FBF726BE94F952586DB1B4F897
:10A5D00054184B08A4F8543801F001012046013DFD
:10A5E000FFF744FF84F85258DDE7D4E909239A4283
:10A5F00084F85058D7D194F85F38012B01D0042B40
:10A60000D1D1606CFFF78DFFCDE70A2B3DD194F8D7
:10A610004F382BB9B4F8563843F00103A4F8563834
:10A620002379D9070AD5B4F85608820501D4C3079F
:10A6300018D4B4F85C380133A4F85C38012284F8EB
:10A640004C2894F84F280023012A84F84D381CD157
:10A65000617984F84F38606C01F00101BDE8384041
:10A660003DF00EBEE36AC0F3470013B1216B98477B
:10A67000E4E7E3696269D054E369E2680133B3FB5C
:10A68000F2F102FB1133E361D8E738BD904BD3F808
:10A690000C25012A2DE9F04100F07F828D4A8E4C75
:10A6A000D2F888308D4943F470038C42C2F8883068
:10A6B00004D08B4A2046121B43F04AFA854B894945
:10A6C0009C600A68884D42F480720A60D968874AA3
:10A6D0004FF6FF0001400A43DA603CF0E7FB7C4B99
:10A6E000D3F80805FBF7F0FD814A136803F4C06353
:10A6F000B3F5806FD2F8803023F48073C2F88030D5
:10A7000060D0734A7B4BD2F80415D3F8A474D3F805
:10A71000A064D3F8988451B177498B68C96803F075
:10A720000C030C2B6BD0082B6DD1734B1B68734C37
:10A7300071498B68C96803F00C030C2B74D0042B8F
:10A7400076D16D490B684B6823F0FE4343F080439C
:10A750004B603CF0ABFB002840F0B9806649D1F873
:10A76000943043F00103C1F89430D4F8D00704E0EA
:10A77000D4F8D0371B1A022B55D8D1F894309B0748
:10A78000F6D5D1F8983043F00103C1F89830D4F8E9
:10A79000D007594904E0D4F8D0371B1A022B42D80D
:10A7A000D1F898309A07F6D58B6803F00C030C2B80
:10A7B00000F0B9810B6823F080730B60D4F8D007E8
:10A7C0004D4951E013684E4923F4C06343F40073CC
:10A7D00013606B68322000FB03F3A1FB0313516984
:10A7E0009B0C480503F1010306D500E023B1516934
:10A7F000490503F1FF33F9D43D4B5B6981E701F073
:10A800000301032991D03C493C4C0B6843F480334D
:10A810000B60D4F8D0070B689B0389D4D4F8D037E9
:10A820001B1A642BF7D9FEE701F00301022988D037
:10A8300031490B6843F480730B60D4F8D00704E00F
:10A84000D4F8D0371B1A022BEDD80B685A05F7D570
:10A850004B6823F0FE4343F080434B607EE7D4F81F
:10A86000D0371B1A022BDED80B689B01F7D4C868BF
:10A87000244A731E024048EA0313134343EA0723A2
:10A8800043F08053CB600B681B4A43F080730B602E
:10A89000CB6843F08073CB60D4F8D01704E0D4F8D1
:10A8A000D0375B1A022BBED813689801F7D50D4B31
:10A8B0001A68110728D41A6822F00F0242F0080221
:10A8C0001A601B6803F00F03082B1DD0FEE7AAE7F0
:10A8D0000020004000ED00E000F001200000000832
:10A8E000D8F1012000200240000000200003FA05FA
:10A8F000007000409818002000100240883A0020A4
:10A9000083DE1B430C809F01B44B1A68920140F117
:10A91000F380D968DA68DB6801F003010329C2F328
:10A9200003120CBFAE49AF490132B1FBF2F2AB49A1
:10A93000C3F3062302FB03F3CA68C2F34162013288
:10A940005200B3FBF2F3A84A934206D98B688B6896
:10A9500023F0F00343F080038B60A04B9A6842F031
:10A9600003029A60D4F8D01741F2883004E0D4F89A
:10A97000D027521A8242A9D89A6802F00C020C2AF7
:10A98000F5D19968994A41F4E0619960996821F498
:10A990007C5141F4E0619960996821F0F00199607F
:10A9A000136803F00F03082B00F2A7808B4C904E26
:10A9B000A36823F4E063A360A36823F46053A36057
:10A9C00039F00CFCA368C3F30313334493F88C32BF
:10A9D00003F01F0320FA03F76F603CF067FA0028CA
:10A9E00040F0DA80D4F88830824A834923F00303A8
:10A9F000C4F88830D4F8883023F00C03C4F88830C9
:10AA0000D4F8883023F03003C4F88830D4F8883084
:10AA100023F0C003C4F88830D4F8883023F440739E
:10AA2000C4F88830D4F8883023F44063C4F8883000
:10AA3000D4F8883023F44053C4F88830D4F88830F0
:10AA400023F44043C4F88830D4F8883023F44033EA
:10AA5000C4F88830D4F89C3023F00303C4F89C3049
:10AA6000D4F8883023F0407343F00073C4F8883082
:10AA7000D4F8883023F04063C4F88830D4F88830A4
:10AA800023F0405343F00053C4F88830D4F88830A2
:10AA900023F0404343F00043C4F88830A36B43F4F1
:10AAA0008073A363A36B23F48073A363534B5A6037
:10AAB0001A6822F4FE4242F400521A601A6842F008
:10AAC00060021A60494A1160D3F80435A26802F0A6
:10AAD0000C02082A05D00C2A43D0424B042A18BF86
:10AAE0003B463E4A9268C2F30312164496F88C2203
:10AAF000D3406B60BDE8F081E8E6136823F00F03F4
:10AB000043F008031360D4F8D01741F2883013687B
:10AB100003F00F03082B3FF449AFD4F8D0375B1A8A
:10AB20008342F4D9D2E6CB6803F0030188457FF471
:10AB30007AAE013E03F0F002B2EB061F7FF473AE73
:10AB400003F4FE42B2EB072F7FF46DAE03F07842C0
:10AB5000B2F1805F7FF467AE13F0CC6F3FF4A7AE25
:10AB600061E6E168E26801F003010229C2F3031221
:10AB700002F1010208BF1B4BB3FBF2F3174AD16885
:10AB8000D268C2F34162C1F30621013201FB03F333
:10AB90005200B3FBF2F3A4E798E6104A184C0021E8
:10ABA000C3F80C15D4F8D017136843F480731360FE
:10ABB00004E0D4F8D0375B1A022B51D813685D0536
:10ABC000F7D55368054D43F0804353600121D4F815
:10ABD000D007916041F2883219E000BF00100240B6
:10ABE00000127A000024F40000B4C40400200240E3
:10ABF000ECDF04087FBB2220040704000020004093
:10AC0000883A0020D4F8D0371B1A934228D8AB6872
:10AC100003F00C03042BF5D11C4B1D4A5A603CF089
:10AC200045F9E8B94FF480732B602B60D4F8D01746
:10AC3000184B04E0D4F8D027521A022A10D81A6808
:10AC400012F00072F6D14FF480504FF0FF31D8600F
:10AC50009A611962D3F8942042F40002C3F8942058
:10AC60004FF0E02300221A615A619A6172B60A49D4
:10AC70000A4A0B68106823F0070343F001030B60D6
:10AC800080F3088853689847FEE700BF0000002063
:10AC90000024F40000100240000001400000FF1FEB
:10ACA00010B550B1A82808D0C02827D0D82827D060
:10ACB000F0280CBF0324002400E000240220FDF74C
:10ACC00035FB03460120FDF731FB9C420AD128B138
:10ACD0000C4A936803F00303032B00D010BDD36824
:10ACE000DB07FBD42046FBF7EFFA0028F6D021461D
:10ACF0000220FDF723FB72B6FEF742FB0124DDE7DD
:10AD00000224DBE70010024010B4EFF3118210239D
:10AD100083F312880D4C0E4BD4F8A4104FF0E020B2
:10AD20000131C4F8A4108169C3F8D4170021C3F815
:10AD3000D8170169D2B282F31188D3F8D0275DF811
:10AD4000044B0132C3F8D027704700BF9029002080
:10AD5000883A002030B4EFF31183102282F3128876
:10AD60004FF0E0220F4894691169C90344BF0121E3
:10AD7000C0F8D8170C4948BF9469D1F8A450D0F84E
:10AD8000D827DBB283F31188D1F8681D4FF47A70AD
:10AD90002A4400FB01F31B1B30BCB3FBF1F300FBA7
:10ADA00002307047883A002090290020134B5B68DE
:10ADB000C3F308030BBBEFF31183F3B910B4104BCB
:10ADC000104C4FF0E02CD3F8A420DCF81800D3F896
:10ADD000A4108A42F7D1D4F8D4178842F3D8D3F814
:10ADE000684D4FF47A7101FB04F31B1AB3FBF4F3C3
:10ADF0005DF8044B01FB02307047ABE700ED00E06B
:10AE000090290020883A00202DE9F04FBD4F87B0EF
:10AE10003B7805931BB9012007B0BDE8F08F97F888
:10AE20006C350393B84BDFF8F0B2D3F8A430049339
:10AE300007F566770BF5387A4FF00009ABF2DC7650
:10AE4000039B994500F0F680BB69D7F80480D3E9ED
:10AE50003354FFF7ABFF019096F8C50B96F8C4CBBF
:10AE600004F1004139390122542805EB410102FA6D
:10AE700008F205EB4C0301D1A6F8CECB994240F283
:10AE80002D81B3F800E01EEA020F00F01F81B3F835
:10AE900002E01EEA020F00F03081B3F804E01EEA7F
:10AEA000020F00F02C81B3F806E01EEA020F03F156
:10AEB0000803E3D1A3EB050E99424FEA6E0E40F270
:10AEC0000D81A4EB0E04452C28BF452403EB44045C
:10AED000A34280F00A8100259C46A8462946CDF869
:10AEE0000890B3F8009009EA0209894518BF0233B7
:10AEF0001AD1B3F8029009EA0209494518BF043390
:10AF000012D1B3F8049009EA0209494518BF063383
:10AF10000AD1B3F8069009EA0209494503F108038A
:10AF200002D19C42DDD802E09C4200F2A480B8F13C
:10AF3000110FDDF8089040F2D880D8F1150200F129
:10AF4000D4807249019CD1F858349E45D6F8D83B3C
:10AF500038BFC1F858E4E11A002918DB03F5F423DF
:10AF600003F590739C4284BF23460533C6F8D83B53
:10AF7000664B6649D3F85834052B86BF053BDBB2D8
:10AF8000002386F8C43B4FF0FF33C1F858343AB180
:10AF900005FA02F2C8F11408012505FA08F515436F
:10AFA0005B4AC5F3C43302EB8303D3F8641E05F098
:10AFB0001F0302EB8303D3F8643E43EA0133C5F376
:10AFC000441102EB8101C5F3842502EB8502D1F81F
:10AFD000641ED2F8642E43EA011343EA022383EA93
:10AFE000132282EA1212D6F8C41A02F00F020F2AB4
:10AFF00001F101015AD1B3F5803F57D254284FEAED
:10B0000013131ED0B3F5606FC6F8C41A23D0AAF884
:10B010000C300599049A58460CF054FC09F10109CA
:10B02000B9F1080F0BF15C0B07F120070AF1140AC4
:10B030007FF406AF0123012086F8C03B07B0BDE8CE
:10B04000F08FB6F8C82BC6F8C41A0132B3F5606F9A
:10B05000A6F8C82BDBD12C4991F84D2102EB420216
:10B0600001EBC2024A4492F85D210D2ACFD1802320
:10B070008AF81E30CDE7A3EB0C0C26494FEA6C0C86
:10B080000CF1010C81FB0C91A1EBEC710129B8BF13
:10B0900001218D404FF0010C884401390CFA01F177
:10B0A0000D4333F8021C9C4611401AE7542804D182
:10B0B000B6F8C83B0133A6F8C83BD6F8C03AC6F884
:10B0C000C41A0133C6F8C03A0021A3E70233A3EB48
:10B0D000050E99424FEA6E0E3FF6F3AEBCF1000F3B
:10B0E00003D00CF1FF3C86F8C4CB542896D1B6F8B7
:10B0F000CA3B0133A6F8CA3B90E70433DAE60633CD
:10B10000D8E600BF981800209029002000000020F9
:10B11000ECDF0408565555556442002070B51F4BAE
:10B1200093F84C2193F84D319A4231D11C4845682F
:10B13000002D10DD10F8086B002406B3037F012BEF
:10B1400020D042691368013443F00103A54200F1A5
:10B15000E4001360F1D1FFF729FE124BD3F88C47BE
:10B16000002C0BDD03F26C7303EBC40419689A889E
:10B17000C86808330243A342CA60F7D170BDFAF72A
:10B180006BFFDEE7002380F8D430FAF765FFD8E7DD
:10B1900040F046F90028C9D170BD00BF90290020B9
:10B1A00098180020883A00202DE9F04704460068EE
:10B1B000217D026802238B401A4209D0E669A04D26
:10B1C0004FF49A7202FB065292F8981811B143603C
:10B1D000BDE8F0879B4F9C49D7F804C091F8B411A3
:10B1E0009A4FC7F8DCCB002900F0A480D2F8B4272E
:10B1F000D2F810C01168DCF8002022F00102CCF86F
:10B200000020CA6822F48072CA602A78002ADED040
:10B210004FF49A7306FB03F305EB030A8C49DAF843
:10B22000D4088C4A03EB0109C1B20839A2FB012101
:10B23000DAF8B4370909013120F0FF00D3F80080B3
:10B240003EF0B8FA01238AF89838D7F8E43B002B8F
:10B2500000F08280D8F800204FF49A7303FB065365
:10B2600042F08002C8F80020D3F894284FF0FF3154
:10B27000B2F5807FC8F82C1073D000F29680012AB6
:10B2800000F0BA80102A22D1D8F82020D3F8D018A4
:10B2900022F01002C8F82020D3F8C82842EA0100A2
:10B2A000D8F81820D3F8CC1822F47F42014342EAA0
:10B2B0001122C8F81820D3F8C428D8F8203023F079
:10B2C000A00343EA021343F01003C8F820304FF400
:10B2D0009A7303FB06550023D5F8D408C5F87038D7
:10B2E000C1B2A3F133330839A3FB013109094A463E
:10B2F000013120F0FF003EF01BFAD5F8D428206879
:10B3000053686FF30F0343F016035360136843F061
:10B3100001031360D5F8B427B5F8B8371268D168BF
:10B320000B43D360474B227D5968C7F8E01B0223CB
:10B3300093404CE7D2F8D4C8DCF8001021F00101AA
:10B34000CCF80010D2F8B417B2F8B8C70968CA68C8
:10B3500022EA0C02CA6058E7FFF728FDC7F8E40BA1
:10B3600078E7D8F82020D3F8D01822F48072C8F8F3
:10B370002020D3F8C82842EA0100D8F81C20D3F8CE
:10B38000CC1822F0FF02014342EA1142C8F81C2007
:10B39000D3F8C428D8F8203023F4206343EA0223EA
:10B3A00043F48073C8F8203091E7B2F5805F8ED106
:10B3B000D8F82020D3F8D01822F48052C8F82020E2
:10B3C000D3F8C82842EA0100D8F81C20D3F8CC18DA
:10B3D00022F47F42014342EA1122C8F81C20D3F82C
:10B3E000C428D8F8203023F4204343EA023343F43E
:10B3F0008053C8F820306AE7D8F82020D3F8D01856
:10B4000022F00102C8F82020D3F8C82842EA01003F
:10B41000D8F81820D3F8CC1822F0FF02014342EAF2
:10B420001142C8F81820D3F8C428D8F8203023F0E7
:10B430000A03134343F00103C8F8203047E700BF75
:10B4400098180020001000E090290020883A002081
:10B4500000210020CDCCCCCC2DE9F04F864C2378B8
:10B4600087B01BB9012007B0BDE8F08F834BD3F83C
:10B47000A4300493FFF79AFC94F86C350193002BE9
:10B4800000F0F2807E4AD2F8E43B04F2AC74A0EB08
:10B49000030902F2DC7B02F6BC2A254600260127BE
:10B4A0000594B9F1000F04DBD5F8F0304B4500F3FB
:10B4B000C180714A4FF49A7303FB062393F89838BE
:10B4C00003F0FF08002B7DD0AB68A9891A68D5F876
:10B4D00028315C68D368A4B2C4F1160423EA0103DE
:10B4E000072CD3606ED9664AD2F8C43A0133C2F849
:10B4F000C43AD5F830310022CDE9028618689E465C
:10B500009446012116E0BCF1140F1FDC16F1080867
:10B5100048BF06F117084FEA28160CEB281C06F165
:10B52000FF38013102FA06F607FA08F88C4248EAB9
:10B5300006020BD306465EF8040F8C42A0EB06060B
:10B54000E1D8CCF115064FF0150CE8E7BCF1150F6A
:10B55000DDE9028664D14B4CC2F38421C2F344106E
:10B5600004EB810104EB8000D1F8E41ED0F8E40E76
:10B57000090241EA001102F01F0004EB8000C2F34F
:10B58000C43204EB8202D0F8E40ED2F8E42E014378
:10B5900041EA023181EA112282EA121202F00F021C
:10B5A0000F2A3DD1C1F30F114FF6FF72914237D0F0
:10B5B000B1F5606F42D0AAF80C10049A4146584683
:10B5C0000CF080F92846FCF717FF019B0136B342C7
:10B5D00005F59A750BF15C0B0AF1140A7FF461AF63
:10B5E0002749059C0122002381F8C02B019AC1F84C
:10B5F000E43B4FF49A7303FB0243A26894F8B4103F
:10B600001268D4F8E80011F0020F116A04F59A7478
:10B6100014BF41EA80010143A3421162EDD121E749
:10B620001749D1F8C02A0132C1F8C02AB6B14FF08B
:10B630000008C2E7002007B0BDE8F08F0F4A92F87B
:10B640004D3103EB430302EBC303334493F85D3105
:10B650000D2BB0D180238AF81E30AEE71946582250
:10B66000094842F075FAE2E7054B012283F8C02B46
:10B67000019AC3F8E42BF5E69818002090290020E1
:10B68000883A0020ECDF0408F04500202DE9F84F4F
:10B69000FFF78CFB2E4FDFF8C4B07D682D4C2E4E8B
:10B6A00082464FF00008002D46DD00231A46E420B4
:10B6B00000FB0371013391F8DD109D4242EA010263
:10B6C000F6D142EA08095FFA89F99046DBF80430BE
:10B6D000C3F308036BBBEFF3118353BB4FF0E020C0
:10B6E000D4F8A4308169D4F8A4209342F8D1D6F8D4
:10B6F000D4279142F4D8D4F868CD4FF47A7202FB83
:10B700000CF0401AB0FBFCF002FB0300A0EB0A03B4
:10B71000B3F5FA6F02DCB8F1000FC4D1B9F1000F34
:10B7200004D00D4B93F8C52B542A09D04846BDE8E8
:10B73000F88FFFF70FFBE9E7C1464FF00008C5E7B8
:10B74000B3F8CC2B0132A3F8CC2B4846BDE8F88FD8
:10B750009818002090290020883A002000ED00E091
:10B760002DE9F0410746FFF721FBDFF86480164C16
:10B77000164D0646D8F80430C3F3080303BBEFF3B5
:10B780001183EBB94FF0E02CD4F8A430DCF818109A
:10B79000D4F8A4209342F7D1D5F8D4279142F3D816
:10B7A000D4F868CD4FF47A7202FB0CF0401AB0FB6B
:10B7B000FCF002FB0300831BBB42DBD3BDE8F0813E
:10B7C000FFF7C8FAF7E700BF90290020883A002069
:10B7D00000ED00E02DE9F843DFF8B080294C2A4F56
:10B7E000461E4FF0E025D8F80430C3F30803002BC1
:10B7F00044D1EFF31183002B40D1D4F8A430A969D0
:10B80000D4F8A4209342F8D1D7F8D4279142F4D8A1
:10B81000D4F8680D4FF47A7202FB00F9A9EB010924
:10B82000B9FBF0F902FB0399D8F80430C3F308031D
:10B830000BBBEFF31183F3B9D4F8A430A969D4F8A2
:10B84000A4209342F8D1D7F8D4279142F4D8D4F861
:10B8500068CD4FF47A7202FB0CF0401AB0FBFCF09A
:10B8600002FB0300A0EB0903B3F57A7FDCD3013EB2
:10B87000B9D2BDE8F883FFF76DFAF3E7FFF76AFA8C
:10B880008146D1E790290020883A002000ED00E0B1
:10B890002DE9F041124CDFF84C8082B004F540767F
:10B8A00002E00834A64218D094F90650002DF8D1D1
:10B8B000276807F1384308EB9323083493F86802AC
:10B8C0003BF0CAFB34F8041C0123CDE900552A469D
:10B8D00038463EF02FF8A642E6D102B0BDE8F0812E
:10B8E000FC310020ECDF04082DE9F04F874C83B0D9
